:020000040000FA
:1000000000030020D9000000E7000000E900000024
:1000100000000000000000000000000000000000E0
:10002000000000000000000000000000EB000000E5
:100030000000000000000000ED0000007902000058
:1000400087020000890200008B0200008D02000080
:100050006501000067010000A501000069010000C2
:10006000830200006B010000AB01000025010000CD
:10007000F1000000A7010000850200002701000038
:10008000F1000000A9010000F1000000F1000000F3
:10009000F10000000000000000000000000000006F
:1000A0000000000000000000000000000000000050
:1000B0000000000000000000000000000000000040
:1000C0000448854600F01CF8004800477F03000004
:1000D000C046C04600030020064880F30888064852
:1000E000804706480047FEE7FEE7FEE7FEE7FEE73B
:1000F000FEE70000000300207B020000C1000000BA
:10010000064C0125064E05E0E36807CC2B430C3C6A
:1001100098471034B442F7D3FFF7D6FF88030000A6
:10012000980300007047704710B50B480B490863EF
:10013000C805406BC9130843C9034863012000F098
:1001400035F8642000F080F8034804490863044847
:1001500008600020086310BD837A00008000004022
:10016000FF010000704770477047704710B572B6C6
:1001700009480A4908630A480068C912084308493F
:100180000860642000F060F8002004490863012042
:1001900000F04AF862B610BD837A0000800000408B
:1001A00000040040704770477047704710B5044620
:1001B000012C33D11A481B490863C805806B032101
:1001C00009028843A1078863642000F049F8A0076A
:1001D000806B21020843890588630846806BA04331
:1001E0008863642000F03CF8A007806B03210902BB
:1001F0008843A1078863642000F032F8A007806B71
:10020000032109020843A1078863642000F028F84D
:10021000112000F03DF800200249086310BD0000E5
:10022000837A00008000004010B50446012C07D1FD
:100230000021112000F058F8112000F045F802E0EC
:10024000112000F031F810BD08B50021009103E045
:1002500000BF0099491C009100998142F8D308BD64
:1002600008B50021009103E000BF0099491C0091EE
:1002700000998142F8D308BD704710B5FFF754FFCD
:1002800010BD704770477047704770477047000057
:10029000002805DBC206D20E01219140014A1160FF
:1002A0007047000080E200E0002809DBC206D20EA1
:1002B00001219140034A1160BFF34F8FBFF36F8F4D
:1002C0007047000080E100E0002809DB00BF00BFAC
:1002D000C206D20E01219140024A116000BF00BF48
:1002E0007047000000E100E010B5002819DB1A4A51
:1002F00003231B02D21883089B00D2588307DC0E0D
:10030000FF23A3409A438B071B0E8407E40EA340F0
:100310001A43114B032424021B198408A4001A5108
:1003200018E00E4A03071B0F083B9B089B00D2589E
:100330008307DC0EFF23A3409A438B071B0E840721
:10034000E40EA3401A43054B0407240F083CA408FD
:10035000A4001A5110BD000000E100E01CED00E017
:1003600002E008C8121F08C1002AFAD1704770477E
:10037000002001E001C1121F002AFBD17047FFF7E6
:10038000F5FE00BFFEE7000098030000000000201B
:080390000003000070030000EF
:04000005000000C136
:00000001FF
