:020000040000FA
:1000000020030020D9000000E7000000E900000004
:1000100000000000000000000000000000000000E0
:10002000000000000000000000000000EB000000E5
:100030000000000000000000ED0000004D0800007E
:100040009D0A00009F0A0000A10A0000A50A000006
:10005000D9030000DB030000AD060000DD03000053
:10006000990A000041060000C50600008503000053
:10007000F1000000B10600009B0A00009903000097
:10008000F1000000BD060000F1000000F1000000DA
:10009000F10000000000000000000000000000006F
:1000A0000000000000000000000000000000000050
:1000B0000000000000000000000000000000000040
:1000C0000448854600F04CF9004800473B0D00000D
:1000D000C046C04620030020064880F30888064832
:1000E000804706480047FEE7FEE7FEE7FEE7FEE73B
:1000F000FEE70000200300204F080000C1000000C0
:10010000F8B502464A40D40F42004B0052085B0843
:100110009A4202D20246084611464A0023D0C30D35
:100120004A00DDB2120EAD1A202D35DA4902012641
:10013000490AF6058A19002C00D0524220214F1B93
:100140001146B9402A411018C20D9A4221D0002C04
:1001500017D0012D08DCDA05801AD20F8019D207DA
:10016000DBB200F0C4F8F8BDDA05801A01234000C4
:100170001B06C01880185A428018CA0F1043490045
:1001800007E04908C2071143DA05801A80194008C0
:10019000801800F0A4F8F8BD61000122511A001B7C
:1001A000F7E70122D2075140AAE70122D2075040C7
:1001B000A6E7024670B54A40D30FDB0740002DD0BA
:1001C0004A002AD0010E140E000212020919400A38
:1001D000520A8418E50104465443000A120A2E0408
:1001E0005043A4194219200CC543AA18120C01252A
:1001F000AD03521C521912047F39240400D0521C42
:10020000104301D44000491EC2B20C06C009201898
:10021000401C4008802A02D003E0002070BD400846
:100220004000002900DA0020184370BD70B5024676
:100230004A40D50F40004A00ED0740085208002808
:1002400014D0002A12D0C40DD30D41020120C005E4
:100250005202490A520AE41A091812187D349142CE
:1002600001D3641C00E04900002C01DA002070BDBD
:100270000023914201D3891A034340084900002812
:10028000F7D100290AD0914202D10121C90705E026
:10029000914201D2012101E00121C943E005C018CA
:1002A000401900F01CF870BD10B5002296231146CD
:1002B00000F01DF810BD410040020122400AD205A5
:1002C000090E80187F2901DA00207047962903DC87
:1002D0009622511AC84070479639884070470029C5
:1002E00004DA401C490001D140084000704770B456
:1002F0000024050C05D11024000402D1002921D0CE
:100300001124050E01D100020834050F01D10001AE
:10031000241D850F01D18000A41C002801DB4000B2
:10032000641C002908D020252E1B0D46F540A14055
:1003300000D001212943084301061B1B000ADB1DD5
:1003400002D5002070BC7047DB0518188018002902
:10035000F8DA401C4900F5D170BC400840007047F5
:10036000064C0125064E05E0E36807CC2B430C3C08
:1003700098471034B442F7D3FFF7A6FE300E0000C2
:10038000500E00000348406B0321084301494863B5
:1003900070470000801401407047000010B50B4802
:1003A0000B490863C805406BC9130843C903486378
:1003B000012000F0A1F9642000F030FA034804495C
:1003C0000863044808600020086310BD837A0000B9
:1003D00080000040FF010000704770477047F0B593
:1003E0000B46002200240025002100BF65E0012605
:1003F000964034461E6826403546A5425CD11E799B
:10040000002E0CD1016801269640314301604168FD
:10041000012696400F46B743394641602DE01E79CC
:10042000012E0BD1016896400F46B7433946016053
:10043000416801269640314341601EE01E79022E3C
:100440000ED10168012696400F46B7433946016038
:100450004168012696400F46B743394641600CE09B
:100460001E79032E09D101680126964031430160AF
:10047000416801269640314341605E79012E04D1E6
:10048000016996403143016109E05E79002E06D191
:100490000169012696400F46B743394601618169DB
:1004A0009E68012E02D19640314304E00126964019
:1004B0000F46B74339468161521C102A97D3F0BDCD
:1004C00030B50C46230000F077FB10090F171E25EE
:1004D0002B333A41474F565D636B7279016A394D50
:1004E00029408B1803626AE0016A364DE13D2940DC
:1004F00013015B18036262E0016A334D2940130265
:100500005B1803625BE0036A1905090D13035B18AE
:10051000036254E0416A2B4D29408B1843624EE040
:10052000416A284DE13D294013015B18436246E0D2
:10053000416A254D294013025B1843623FE0436A3C
:100540001905090D13035B18436238E0816A1D4DDC
:1005500029408B18836232E0816A1A4DE13D2940BF
:1005600013015B1883622AE0816A174D2940130248
:100570005B18836223E0836A1905090D13035B1876
:1005800083621CE0C16A0F4D29408B18C36216E0DC
:10059000C16A0C4DE13D294013015B18C3620EE0B6
:1005A000C16A094D294013025B18C36207E0C36AA0
:1005B0001905090D13035B18C36200E000BF00BFFB
:1005C00030BD0000F0FF0000FFF0000002460020F8
:1005D00093680B40002B01D0012000E00020704701
:1005E0000021016001714171816070470EB568465C
:1005F000FFF7F6FF012168460171C8200090002135
:100600006846417169460D48FFF7E9FE6846FFF705
:10061000E7FF002168460171FF20013000900121B1
:1006200068464171694605488030FFF7D8FE0822C8
:10063000114602488030FFF743FF0EBD0020014005
:100640007047000010B572B6144815490863154884
:100650000068C912084313490860FFF7C7FF00F09C
:1006600057FA642000F0DAF80021032000F0DEFAE7
:100670000320002809DB00BF00BFC206D20E012103
:100680009140094A116000BF00BF00BF002004492B
:100690000863012000F06EF862B610BD837A000096
:1006A000800000400004004000E100E070470000CE
:1006B00003200149C8637047001C014010B500F0D9
:1006C00069F810BD70470000094A0A4B1A630029F7
:1006D00004D01A46D2690243DA6104E0054AD269BD
:1006E0008243044BDA610022024B1A637047000018
:1006F000837A00008000004010B50446012C33D1FD
:100700001A481B490863C805806B03210902884306
:10071000A1078863642000F08DF8A007806B210298
:100720000843890588630846806BA043886364207A
:1007300000F080F8A007806B032109028843A1071D
:100740008863642000F076F8A007806B032109021B
:100750000843A1078863642000F06CF8112000F0C2
:1007600039FA00200249086310BD0000837A0000B6
:100770008000004010B50446012C07D10021112053
:1007800000F090FA112000F041FA02E0112000F090
:100790002DFA10BD112000F029FA112000F01AFAEC
:1007A0001848194948630846406A40218843164959
:1007B00048620846006A0C218843134908620020F9
:1007C0004863124812490863FF20C862084600685F
:1007D000891588430E490860C805406BC9138843D2
:1007E000C903486300200A49C862086300BFBFF319
:1007F0004F8F08480849C860BFF34F8F00BF00BF44
:1008000000BFFDE7ADDE0000401C0140837A000020
:10081000800000400400FA0500ED00E008B500216A
:10082000009103E000BF0099491C009100998142AA
:10083000F8D308BD08B50021009103E000BF00997E
:10084000491C009100998142F8D308BD704710B54A
:10085000FFF7A4FD10BD0000002932D0324A9042BB
:1008600008D1314AC032126B10231A432E4BC033C9
:100870001A6358E02C4A2032904208D12A4AC032EA
:10088000126B20231A43284BC0331A634BE0264ACD
:100890004032904208D1244AC032126B40231A439E
:1008A000214BC0331A633EE01F4A603290423AD176
:1008B0001D4AC032126B80231A431B4BC0331A638C
:1008C00031E0194A904208D1174AC032126B102306
:1008D0009A43154BC0331A6325E0134A20329042E5
:1008E00008D1114AC032126B20239A430E4BC033F9
:1008F0001A6318E00C4A4032904208D10A4AC032CA
:10090000126B40239A43084BC0331A630BE0064A2C
:100910006032904207D1044AC032126B80239A435E
:10092000014BC0331A63704700180140FEB50646FC
:100930000C4601210420FFF7C7FE21783046FFF75F
:100940008BFF61688900A0680843E168C90008431B
:10095000616909010843216989010843A169C90145
:100960000843216B090208433060E0697060206A27
:10097000F060606A30613D48476B208D0007000FD2
:100980000190A08D0007000F00903848C0388642C3
:1009900016D1072002903946029881430F46606BBA
:1009A000074332484038056AFF200002054001989D
:1009B00005430098000105432C484038056252E089
:1009C0002A48A038864216D138200290394602982B
:1009D00081430F46606BC000074324484038056AD6
:1009E000EDB20198000205430098000305431F483B
:1009F0004038056237E01D488038864218D1FF2014
:100A0000C13002903946029881430F46606B8001E5
:100A1000074316484038456AFF2000020540019808
:100A200005430098000105431048403845621AE02C
:100A30000E486038864216D107204002029039469F
:100A4000029881430F46606B4002074307484038D5
:100A5000456AEDB201980002054300980003054382
:100A600002484038456201484763FEBDC018014056
:100A7000002181604160C1604161016181617D212E
:100A8000C900C16149100162416200218162C162F5
:100A9000016341630170704770477047704770474A
:100AA0007047000010B51648806B012149020840CC
:100AB000002816D00846124988631248007800289A
:100AC0000CD189151048FFF781FD002803D00120C3
:100AD0000E49886002E002200C4988600020094924
:100AE00008700748806B012189020840002806D061
:100AF000044800F029F9012080020149886310BDF3
:100B0000C01801400A000020802001400C00002095
:100B100000B58FB001A8FFF7ABFF012002900320C2
:100B200003900A480890002009900F200B900020A5
:100B30000D9003200E9001A90548FFF7F7FE012153
:100B40000348FFF789FE0FB000BD0000007C920053
:100B500060180140F8B5002415488068012801D1CB
:100B6000144C1FE012488068022801D1002419E0CB
:100B70000F4909680E4A52688818FFF795FB074627
:100B80000B490868FFF790FB39460090FFF74EFBD2
:100B900006460849FFF70DFB05467F21C905FFF70B
:100BA000AFFA04462046FFF786FB01498881F8BD6D
:100BB0000C00002000007A4430B47446641E25788E
:100BC000641CAB4204D3635D5B00E31830BC184780
:100BD0001D46F8E7002805DBC206D20E0121914030
:100BE000014A11607047000080E200E0002809DB44
:100BF000C206D20E01219140034A1160BFF34F8F0C
:100C0000BFF36F8F7047000080E100E0002809DB30
:100C100000BF00BFC206D20E01219140024A1160FE
:100C200000BF00BF7047000000E100E010B50028E1
:100C300019DB1A4A03231B02D21883089B00D258DF
:100C40008307DC0EFF23A3409A438B071B0E840708
:100C5000E40EA3401A43114B032424021B198408F9
:100C6000A4001A5118E00E4A03071B0F083B9B080B
:100C70009B00D2588307DC0EFF23A3409A438B07C7
:100C80001B0E8407E40EA3401A43054B0407240FF0
:100C9000083CA408A4001A5110BD000000E100E0C7
:100CA0001CED00E010B5002819DB1A4A03231B02D3
:100CB000D21883089B00D2588307DC0EFF23A34081
:100CC0009A438B071B0E8407E40EA3401A43114B73
:100CD000032424021B198408A4001A5118E00E4AA8
:100CE00003071B0F083B9B089B00D2588307DC0EB1
:100CF000FF23A3409A438B071B0E8407E40EA340F7
:100D00001A43054B0407240F083CA408A4001A51F9
:100D100010BD000000E100E01CED00E002E008C8AA
:100D2000121F08C1002AFAD170477047002001E065
:100D300001C1121F002AFBD17047FFF783FC01E0BD
:100D4000FFF708FFFCE7000010B5044631480078C3
:100D500000280DD10120207000202F49886001203B
:100D60002C49087000202D4908702D49886250E0F8
:100D70002A4800780300FFF71FFF0504181D2F34D1
:100D80004600FF2101312748FFF720FC002804D04E
:100D90002348C06A2449086006E002201F49087001
:100DA0001F48C06A204908602DE01D48C06A1F49DD
:100DB000086028E01D4800681B490968401A164968
:100DC00008601748C06A19490968401A1249486002
:100DD00000201049087016E01148C06A13490860E5
:100DE00011E00F48C06A11490968401A0A490860B1
:100DF0000E4800680C490968401A074948600020FD
:100E00000449087000BF00BF04480078401C034933
:100E1000087010BD080000200C0000200900002010
:100E20004018014080200140000000200400002004
:100E3000500E0000000000200C0000001C0D0000FF
:100E40005C0E00000C000020140300002C0D0000BC
:0C0E500000000000000000000000000096
:04000005000000C136
:00000001FF
