:020000040000FA
:1000000080150020D9000000E7000000E900000092
:1000100000000000000000000000000000000000E0
:10002000000000000000000000000000EB000000E5
:100030000000000000000000ED0000006F53000011
:1000400035590000655900006759000069590000E2
:100050004D1D00004F1D0000E5330000C1270000CA
:10006000E1570000012D0000C93E0000950A000084
:10007000F1000000F1000000E357000089130000C8
:10008000F1000000613C0000F1000000F100000000
:10009000F10000000000000000000000000000006F
:1000A0000000000000000000000000000000000050
:1000B0000000000000000000000000000000000040
:1000C0000448854600F0D4FC004800476B6A0000F5
:1000D000C046C04680150020064880F308880648C0
:1000E000804706480047FEE7FEE7FEE7FEE7FEE73B
:1000F000FEE70000801500208D540000C1000000C4
:1001000030B50B46014600202022012409E00D46AF
:10011000D5409D4205D31D469540491B2546954037
:1001200040191546521E002DF1DC30BD70B500247B
:100130002546002801DA01244042002901DA012580
:100140004942FFF7DDFFAC4200D04042002C00D016
:10015000494270BDF0B51FB40646002082B0054686
:100160004024019100901BE0019922460F46304641
:1001700000F0CCFB049A059B801A994110D31046DD
:100180001946224600F079F8361A8F410197224627
:1001900001200021009F00F070F838184D410090B8
:1001A0002046641E0028DFDC019B00982946324669
:1001B00007B0F0BDF8B500242546002904DA0E4644
:1001C000012400214042B141002B04DA1E460023E5
:1001D00052420125B341FFF7BDFF8C4617461E462C
:1001E000AC4203D0002540428D41AC46002C02D0E9
:1001F000002657429E4161463A46334601B0F0BD63
:10020000F0B51FB486B000200090019002900698CF
:10021000069980B204900798090C02040014114357
:1002200007900027089D099806913E463C4603909A
:100230000398A9B20204000C039004982D0C1543F6
:1002400048430021224600F018F8C71971411034C4
:100250000E46402CECDB3846029A00F00EF8009A6D
:10026000019B801800905941029801911030029032
:100270004028CCDB00980BB0F0BD10B5202A04DB81
:100280000146203A9140002010BD914020239C1A45
:100290000346E3401943904010BD10B5202A06DB09
:1002A000CB170846203A1041C1170B4306E00B4616
:1002B0001341D0402024A21A91400843194610BD92
:1002C00003460B439B0703D009E008C9121F08C06F
:1002D000042AFAD203E00B780370401C491C521E1A
:1002E000F9D27047D2B201E00270401C491EFBD225
:1002F00070470022F6E710B513460A460446194631
:10030000FFF7F0FF204610BD03460A780270401C3C
:10031000491C002AF9D118467047024670B54A4078
:10032000D30FDB0740002DD04A002AD0010E140E57
:10033000000212020919400A520A8418E501044613
:100340005443000A120A2E045043A4194219200CE7
:10035000C543AA18120C0125AD03521C52191204F0
:100360007F39240400D0521C104301D44000491EA0
:10037000C2B20C06C0092018401C4008802A02D0D6
:1003800003E0002070BD40084000002900DA002092
:10039000184370BD70B502464A40D50F40004A0070
:1003A000ED0740085208002814D0002A12D0C40DCE
:1003B000D30D41020120C0055202490A520AE41A33
:1003C000091812187D34914201D3641C00E04900E1
:1003D000002C01DA002070BD0023914201D3891A5C
:1003E0000343400849000028F7D100290AD0914270
:1003F00002D10121C90705E0914201D2012101E0AA
:100400000121C943E005C018401900F090FA70BD01
:10041000F0B507460846584087B0C00F0490480022
:100420000E46590040084908BC1A884105D2384692
:1004300031461E4617460B460246580040081043F8
:100440004DD0300D039040055900400D490D0590E9
:10045000401A0290402873DA18030121000B0905A5
:100460000843019004980092002806D01146019A92
:1004700049420020904100910190029840210A1ABF
:1004800001990098FFF7F9FE05460C466B4607CB2D
:10049000FFF703FFC0197141039A0E0D0023D71710
:1004A00056401A467A40164344D0049A002A2DD06A
:1004B000029A012A039A15DC1205C01A91410126FD
:1004C0003605001C7141D20F059ED20700930192A0
:1004D00002962A46234600F078FA07B0F0BD384667
:1004E0003146FAE71605234A0F46B218C01AB7413B
:1004F00001210905001C4F4100187F4111461818C1
:100500007941E20F10436D19644113E0E2076D0871
:1005100015436408C2071443039A01261205C01A42
:1005200091413605001C7141CE074008304349080F
:10053000C01851412A46234600F03AFACDE7FFE7BA
:10054000049801224000C117121A00238B4104981D
:100550003146C417381AA141EEE730B40124E4074C
:10056000634030BC54E730B40124E407614030BC40
:100570004EE700000000E0FFF0B51FB488B00B9913
:100580000998002448400999C00F49004908099179
:10059000C0070B990090490049080B9109990898E8
:1005A000A64608431CD00B990A98084318D009980E
:1005B00001244000420D4800410D09982405000324
:1005C000000B204309900B980003000B20430B9075
:1005D00050181C494018002201901446104605E0AE
:1005E000002001460DB0F0BD032801DA034600E00B
:1005F00003239C46C11A0AAE0AE05F0008ADED5B1A
:100600004F00F75B7D430027AA187C41491C5B1E05
:100610006145F2DD410004AB5A522104120C0A4339
:10062000240C401C0828DFDB0198029000997046DA
:1006300001910090059B049A0799069800F0C5F96E
:10064000D0E700000DFCFFFFF0B50C465C4085B024
:10065000E40FE40703944C00002664085900944614
:10066000490802460296224321D062460A431ED020
:100670006200570D4A000E032303550D0124024664
:100680002C492405781B1B0B360B401823432643AB
:10069000614600901C46501AB44103D30098401C98
:1006A000009002E0921800985B41002803DA0020D5
:1006B000014605B0F0BD0020012109050746864628
:1006C00011E064461D46141BB54106D36546521B16
:1006D000B341744607430C43A646CD07400849087A
:1006E000284392185B4105460D43EAD11046184352
:1006F00013D06046194650407140084306D060460A
:10070000101AB34106D20122002306E00022012381
:10071000DB0702E00122D243531000987446010522
:10072000381C6141029C039D0019694100F040F9A9
:10073000BFE70000FD030000C217C10F504010B515
:100740004018CA079623002100F0F9F810BD10B533
:1007500000229623114600F0F2F810BD0EB5C21724
:10076000C10F5040CA0740180021054B0293019267
:1007700000910A460B4600F028F903B000BD0000C6
:10078000330400000EB505490291002100910A468C
:100790000B46019100F019F903B000BD33040000CD
:1007A0003EB5CA17CB0F002450405140C0186141DC
:1007B000DA07054B0293019200942246234600F08B
:1007C00004F903B030BD000033040000C20F410043
:1007D00040020123400ADB05D207090EC0187F2919
:1007E00001DA00207047962903DC9623591AC84085
:1007F00001E096398840002AF4D04042704700005A
:1008000070B5CD0F4A0009030123090B1B051943DD
:100810000B4BED070024520D9A4201DA002070BD07
:10082000074B34339A4203DC9A1A00F06FF802E067
:100830000449511888402C43F1D0404270BD00005B
:10084000FF030000CDFBFFFF4A0009030123090B52
:100850001B051943094B10B5520D9A4201DA0020CD
:1008600010BD064B34339A4203DC9A1A00F04EF85E
:1008700010BD03495118884010BD0000FF0300005F
:10088000CDFBFFFFC20FD207400040080BD0C10DC7
:100890000723DB01C91840020905400A1143C208B9
:1008A00040071143704700200146704710B50029EA
:1008B00004DB0124E40740428C412146002B04DB89
:1008C0001C460123DB075242A3418B4200D18242E6
:1008D00010BD0000CB0FDB07490010B549080246E8
:1008E0000A4307D00A0D07240903E401090B121B70
:1008F000002A01DC002010BDC900440F0C43C100D8
:10090000E018D205801800F012F810BD10B5202AAA
:1009100004DB0846203AD040002110BD0B46D340EE
:10092000D0402024A21A91400843194610BD002946
:1009300004DA401C490001D140084000704770B4FF
:100940000024050C05D11024000402D1002921D077
:100950001124050E01D100020834050F01D1000158
:10096000241D850F01D18000A41C002801DB40005C
:10097000641C002908D020252E1B0D46F540A140FF
:1009800000D001212943084301061B1B000ADB1D7F
:1009900002D5002070BC7047DB05181880180029AC
:1009A000F8DA401C4900F5D170BC4008400070479F
:1009B00010B5002B08DA0024401C614192185B41FD
:1009C0001A4301D14008400010BDF0B51FB482B0F9
:1009D00005460C0003D0084605F0A3FA02E005F036
:1009E000A0FA20300246009021462846FFF745FC39
:1009F000049B059A04460F4618431143084314D03C
:100A0000184610431BD0009840210A1A1846059931
:100A1000FFF77CFF05460E46009A05990498FFF7FC
:100A20002CFC084305D0012004E02046394607B0DD
:100A3000F0BD0020C11705430E432C4337430099F6
:100A40000E986305401A7905E40A00220C43FD0A5A
:100A50000A3002D500200146E9E701051019694175
:100A60000C9C0D9D00196941FFF7A2FFDFE7000014
:100A7000064C0125064E05E0E36807CC2B430C3CF1
:100A800098471034B442F7D3FFF71EFBD06D000037
:100A9000F06D000010B52F48406B032108432D492D
:100AA00048632D480088401C2B49088001202B49B1
:100AB000887028488038008A294948842548803829
:100AC000808A28490887284802F08AFB224801F0DA
:100AD00083F921480079072812D1214801F094FABE
:100AE000224A1F4914310846083803F0EDF820481F
:100AF0008069000C1F4948801F4A194800F04CFECD
:100B00001E48406810210840002805D11B48406855
:100B100020210840002809D0302018494860184892
:100B2000008802218843801C1549088010484069CC
:100B3000000C00B2134908800D480069000C00B297
:100B400048800948808D00B288800622012003F089
:100B500055F910BD801401408C0000208000002059
:100B6000A000002090010020F4020020A00400203A
:100B700058010020100400200C000020401C0140FF
:100B8000120000200600002000B589B0684600F081
:100B900029F900216846418001810A214181002113
:100BA00081810121818200214182012101806946E8
:100BB000074800F027F806488030406BFF210843C3
:100BC00003498031486300F0CFF809B000BD000050
:100BD0000014014070B503461C4650344D10AD0062
:100BE0006059CD072E0FFF25B5400646AE4330466F
:100BF000CD072E0F1546B54028434D10AD0060516E
:100C000070BD000070B504460D460121084603F092
:100C1000F1FA534853490863C805406A298CC90052
:100C20000843012189074862A8880001C8630020A1
:100C30004C4908632988B02001516888298B4900F4
:100C4000084386B2B8200651A88AE98A09010843F8
:100C5000297A09020843A97C09030843A979890371
:100C6000084386B2BC2006516889A9890902084355
:100C7000A067E889298A09020843E067698BC420D4
:100C80000151A98B88200151E98B8C200151688882
:100C9000002834D13120000103F048F801019020F0
:100CA0000151C520800003F041F801019420015159
:100CB0006320C00003F03AF898210851C720800053
:100CC00003F034F89C2108511920400103F02EF85C
:100CD0000101A0200151C920800003F027F8010183
:100CE000A42001516520C00003F020F8A82108517C
:100CF000CB20800003F01AF8AC2108512FE03120FE
:100D0000000103F013F890210851C520800003F082
:100D10000DF8942108516320C00003F007F89821D2
:100D20000851C720800003F001F89C2108511920C8
:100D3000400102F0FBFFA0210851C920800002F011
:100D4000F5FFA42108516520C00002F0EFFFA821A3
:100D50000851CB20800002F0E9FFAC21085170BDA2
:100D6000837A00008000004010B5022200211A485A
:100D7000FFF730FF012211461748FFF72BFF022231
:100D800011461548FFF726FF012203211248FFF7FD
:100D900021FF0C2204211048FFF71CFF0922052126
:100DA0000D48FFF717FF0C2206210B48FFF712FF33
:100DB000112207210848FFF70DFF102208210648DD
:100DC000FFF708FF0F2209210348FFF703FF03483D
:100DD0000349088010BD00000014014052F4FFFFD9
:100DE000201C0140002101804180C180018141819E
:100DF0008181C181018241828182C182018381839B
:100E0000C1830184818070471FB50446214668462E
:100E100003F0FAF8019900980391029069460820BE
:100E2000085E1849C9694843C01300B2208069466A
:100E30000A20085E1349C9694843C01300B26080A4
:100E4000208861884018404200B2A0800E48007C93
:100E500000280AD10220205E0421615E401A0B495D
:100E60004843C01301B2618209E00420205E0221E0
:100E7000615E401A05494843C01301B2618220886F
:100E800020821FBD580100208C000020E74900008F
:100E900070B504466720005D002813D0616FA0681C
:100EA000884207D9608EA18D401A00B220860121A8
:100EB00065200155608E214605F066FB00217A20F1
:100EC00001533EE07D20C004A168FFF719F9A08618
:100ED0005320005D04210840002814D05320005DF9
:100EE00080210840002808D0608EA18D401A00B2F1
:100EF000208601216520015501E0608EA08500213A
:100F0000642001551CE0608E214605F013F924226F
:100F1000125D930022460C32D15840231A5F094BD0
:100F20005A431046FFF7ECF885B20A2D02DA0A2080
:100F3000208705E02587208FC82801DDC82020876D
:100F400000BF70BD701700000146044A12884A4372
:100F5000024B9B781A41104670470000D4020020D3
:100F60000146044A12894A43024B9B7A1A411046B1
:100F700070470000D402002000B506487D21806B38
:100F800049010014081A04490861084600F0EEFF00
:100F900000BD0000200000206812002010B50446AB
:100FA0002A493620085EFFF7DBFF40032849086125
:100FB0002648818C4820005B081800042549886178
:100FC0000846806908610846806923490860208CCA
:100FD0000003224948434012214908622149002068
:100FE000085E0A2148431E4948620846806A00B2EA
:100FF0001D49888200211C48C182808A01041A4848
:10100000C16700218C30C1608C38C08A0004174948
:10101000C8600020164908801348808A00041549DA
:10102000C8601148007D000400B213490880002008
:1010300012490880124908800B48808A11490880AB
:101040000948808A1049088010BD00000C05002066
:1010500014120020580100203C00002077030000FB
:10106000005001405C6B0000A00000203012002006
:10107000340000204C120020360000202600002002
:101080002A0000202C00002028000020F0B587B0A6
:1010900004460D46002060800021A180E180E081AF
:1010A00021826182A061A083A082E083A084B62017
:1010B000684301B2482001530020E06364214020CE
:1010C000015300202080608660851E490869FFF773
:1010D0007DFB642148430746FFF72EFB009019482B
:1010E000016A0098FFF756F9012189070190FFF77F
:1010F00051F90646FFF7C6FB134A144B03910290C1
:10110000FFF7A2FA05910490FFF77AFB01B220469F
:10111000403081800B490869FFF758FB6421484340
:101120000590FFF709FB07460648016A3846FFF7B6
:1011300031F90646FFF74AFB01B24620015307B0DA
:10114000F0BD00005C6B00004AD8124DFB21094045
:10115000FEB504460D4616461F466580A680E7800C
:101160000220205E002801DA002060800421615EF8
:10117000002901DA0021A1800621615E002901DA3F
:101180000021E1800221615E0422A25E891806220C
:10119000A25E8818A0615849A06948430014A08342
:1011A0006088A18B401A00B2E081A088A18B401A10
:1011B00001B22182E088A18B401A01B26182E089EC
:1011C000A0821021615E1222A25E881A4B49484318
:1011D000C01301B2E1821420205E40431622A25EB9
:1011E00052438018464908630846406B00B2E083CA
:1011F0001E20205E46210A5F50434000000C2084E0
:10120000A08C00B220851421615E1620205E00F0C3
:10121000C7F9A0841E20205E7D22D20050434422C4
:10122000135F5843C0130090364881690098FEF759
:1012300067FF00B202900298FFF77EFA009004F078
:10124000E9FB00B22087A08C218D401A00B2608596
:101250001E20205E502801DA002060852A20205EB2
:101260002949884205DD608D01210904081A00B270
:1012700060852A20205E24494942884205DA608D33
:1012800001210904401800B260852A21615EE06AEC
:101290004018E062608E401C00B260863220205E02
:1012A000102806DBE06A001100B220860020E06210
:1012B00060863021615E20463C3005F0CDFBA08683
:1012C0003420205E11498989484300140190019817
:1012D000FFF732FA009004F09DFB00B2E086362062
:1012E000205E002802DB208F608703E0208F4042D1
:1012F00000B26087FEBD000055550000E7490000C0
:1013000000500140306B0000FF7F00005C6B00006C
:1013100072B6194A10201221105E515E40434943B3
:10132000411816480163406B62B6010414484268D4
:101330008B1A1B129A18131442608268891A491377
:101340008918816009145A1A1304C2689B1A1B1267
:101350009A18C26010140B4A2023D35E8B4208DD1A
:10136000002800DA40422221515E884201DA012041
:1013700000E0002090777047A0000020005001405E
:1013800068000020380200201CB503201A4948607C
:10139000084640680221084000282BD00021009117
:1013A000019111E00120800780690121C9030840F3
:1013B000002804D068460078401CC1B200916846FD
:1013C0000079401CC1B20191684600790528E9DB2B
:1013D0006846007803280CDD002002F023FC302052
:1013E000064948600648008802218843801C044959
:1013F000088000BF1CBD0000000C0140401C0140E3
:101400001200002010B504463420015D802002F057
:10141000F1FE217D402002F0EDFE49484949086374
:10142000E0698000E16B09010843A16909020843F2
:10143000A16B090308432169C901084301218907F8
:10144000C96A084301218907C8620846406A217BAE
:101450000843012189074862207D80013421095D0C
:10146000C901084301218907496B08430121890704
:1014700048630020334908634020005D400020217C
:10148000095D084330490860207900280FD14920C0
:10149000005D002803D12920005D002803D008202A
:1014A000294988600CE000202749886008E020680E
:1014B00000012179C9000843A168084322498860D6
:1014C000606CC0014821095D890108434921095D1B
:1014D00049010843E16C09010843616AC9000843F6
:1014E0002821095D890008432921095D4900084335
:1014F000E16A08431449C8605020005DC0015121D1
:10150000095D890108435221095D490108435321BE
:10151000095D090108433021095DC90008433121F3
:10152000095D890008433221095D490008433321E0
:10153000095D0843044908610320486010BD0000AC
:10154000837A000080000040000C014010B5044682
:1015500054212046FEF7CDFE10BD00B595B068467B
:10156000FFF7F4FF00216846017502200790012073
:10157000069008A8417201700121017502200F90A8
:1015800000200E9010A8417201700F2000900120E1
:10159000029068460171FFF735FF15B000BD0000ED
:1015A000F8B54C1C6410A646CA030CB20092A446BF
:1015B000684A694B4C42002867DB451C6F10C50325
:1015C00006B2002931DB88421ADB002811D00098CE
:1015D000C01910625662906AC1094900CA1852883F
:1015E000595A4006521A400E42434032D009081858
:1015F000ADE0002902D001208003F8BD0020F8BD35
:1016000070462818106260465062906AC10949000D
:10161000CA185288595A4006521A400E4243403264
:10162000D00908180121890390E0A04216DB0028A8
:1016300012D0E003C01910625662906AC1094900D5
:10164000CA185288595A4006521A400E4243403234
:10165000D009081840427AE04048F8BD601C4010AC
:101660002818106220B25062906AC1094900CA1855
:101670005288595A4006521A400E42434032D0090D
:10168000081801218903401A61E001254042ED0359
:1016900000292EDB884215DB441C009964100919CF
:1016A000116200B25062906AC1094900CA1852889A
:1016B000595A4006521A400E42434032D009081887
:1016C000281A44E0C1037046081810626046506250
:1016D000906AC1094900CA185288595A4006521ADC
:1016E000400E42434032D0090818012189034018B6
:1016F0002DE0A04215DB411CE40349106118116282
:1017000000B25062906AC1094900CA185288595AF9
:101710004006521A400E42434032D0090818401B7E
:1017200015E0C103601C40100818106220B250621E
:10173000906AC1094900CA185288595A4006521A7B
:10174000400E42434032D00908180449081A00B23A
:10175000F8BD000000500140B06B000000C0FFFF6A
:1017600010B50A480A490863C805406BC913084305
:10177000C9034863012002F06FFD642002F00EFEF1
:101780000448034908600020086310BD837A000004
:1017900080000040FF01000010B5664B5B88002B05
:1017A00070DD644B5B880124E403A3426ADA0B78A2
:1017B000002B05D101230B7000234B608B60CB60A5
:1017C0000F24E4434B68A3420CD20023C35E4C6851
:1017D000002B02DB0023C35E02E00023C35E5B42FA
:1017E000E3184B600F24E4438B68A3420CD202231E
:1017F000C35E8C68002B02DB0223C35E02E002237F
:10180000C35E5B42E3188B600F24E443CB68A342C2
:101810000CD20423C35ECC68002B02DB0423C35E1E
:1018200002E00423C35E5B42E318CB600F24E44371
:101830004B68A34201D9234605E04B680F2B01D228
:101840000F2300E04B684B600F24E4438B68A342F6
:1018500001D9234605E08B680F2B01D20F2300E04E
:101860008B688B600F24E443CB68A34201D92346E5
:1018700005E0CB680F2B01D20F2300E0CB68CB60D3
:1018800008E0FFE700230B704B680B618B684B612E
:10189000CB688B610023C35E002B02DB0023C35E99
:1018A00002E00023C35E5B420024145FA3420BDD11
:1018B0000023C35E002B02DB0023C35E02E0002393
:1018C000C35E5B421BB213800223C35E002B02DBAC
:1018D0000223C35E02E00223C35E5B420224145F64
:1018E000A3420BDD0223C35E002B02DB0223C35E97
:1018F00002E00223C35E5B421BB253800423C35E3B
:10190000002B02DB0423C35E02E00423C35E5B42C0
:101910000424145FA3420BDD0423C35E002B02DB0F
:101920000423C35E02E00423C35E5B421BB29380C8
:1019300010BD0000100400201F481021415E142239
:10194000825E914217DD1021415E1422825E881A68
:101950001A491A228A5E904207DD1748008A498B8D
:10196000401A01B21448018205E01348008A401E63
:1019700001B21148018210481021415E1422825E9A
:10198000914217DC1421415E1022825E881A0B49B5
:1019900018228A5E904207DD0748008A098B4018AA
:1019A00001B20548018205E00348008A401C01B2EB
:1019B0000148018270470000E000002090010020F3
:1019C0001F480E21415E1222825E914217DD0E21D8
:1019D000415E1222825E881A1A491A228A5E904259
:1019E00007DD1748C089498B401A01B21448C181EC
:1019F00005E01348C089401E01B21148C18110485A
:101A00000E21415E1222825E914217DC1221415E5C
:101A10000E22825E881A0B4918228A5E904207DDE8
:101A20000748C089098B401801B20548C18105E00B
:101A30000348C089401C01B20148C18170470000C1
:101A4000E00000209001002010B504464E20015F08
:101A50000C20205E091A802001515020015F0E22C7
:101A6000A25E891AB420025F89189C20015180204F
:101A700000590121C902884201DD084608E08020A2
:101A800000591449884201DA084601E080200059D3
:101A9000802108519C2000590901884201DD084637
:101AA00008E09C2000590B49884201DA084601E011
:101AB0009C2000599C2108512046703000F0A6F867
:101AC000A08220468C3000F0A1F8E08201F07CFF7B
:101AD00010BD000000F8FFFF30B585B0002472B6DD
:101AE00000204449C863C8630420424940398863E0
:101AF0004048806B042108433E498863002500E08C
:101B00006D1C3D488542FBD3FF20033039494039E5
:101B100008613A48486100200090019004900390C9
:101B2000002428E0364833494031086000BF31487E
:101B3000406BC007C00F0028F9D02E48406B03212E
:101B400008432C4948632B49803900228A5E00985B
:101B50008018009004228A5E019880180190082263
:101B60008A5E0298801802900C228A5E0398801880
:101B70000390601C84B2012040028442D2DBFFF754
:101B800003F8FFF7F1F862B60098401201B21D4861
:101B9000C1800198401201B21A4801810621415EBC
:101BA000002903DB01460620085E03E015480621F4
:101BB000415E484211496039884210DC11480821D1
:101BC000415E002903DB01460820085E03E00D4862
:101BD0000821415E484209496039884207DD0A48C8
:101BE0000088FF210131884340180749088005B06B
:101BF00030BD000080140140FFFF07000C0E000004
:101C0000A55A0000E00000201200002010B5014697
:101C10004C690B691B1B0C8963431A464C890B6981
:101C2000634314011A19CB689B18CB600C68CB680E
:101C3000A34202DD0B68CB6005E04C68CB68A34291
:101C400001DA4B68CB60CB6818140B694B6110BD8F
:101C500010B50121080302F0CDFA2748274908638F
:101C6000C805406AC02188430121890748620846A7
:101C7000406A40210843090648620846406A000657
:101C8000800F01280CD1D120800002F04FF81B49B1
:101C90008863CD20800002F049F81849486326E0A7
:101CA00001208007406A0006800F00280CD10D201B
:101CB000800102F03BF8114988633320000102F0F3
:101CC00035F80E49486312E001208007406A00069B
:101CD000800F02280BD16920C00002F027F80749C5
:101CE00088636720C00002F021F80449486393200C
:101CF00002494039C86310BD837A0000800000406B
:101D000000B50121402002F08FFA00BD10B50B494B
:101D1000096A4143C8130A490204486A121A521058
:101D2000101804144862012021460006FEF7FEF94F
:101D3000044948830448C486204610BD5801002049
:101D40002000002014120020A000002070477047DF
:101D50001C491D48C1621D4801891B48103801817A
:101D60001A4841891848103841811949703841672B
:101D70004842154980390867002113488038C167F7
:101D80001248818810480C3001811048C1880E48E3
:101D90000C3041810E49416049420C38C16000213C
:101DA0000C30C1600B490C380163012120380173EC
:101DB0007D20400104498039C8860021024840380E
:101DC000018370471E6B0000200100205801002095
:101DD000000090E8A9350000F8B50546594C2046AA
:101DE000FFF712F82879C01E030004F0E1F8103B59
:101DF0003A37A73CA790A7A7A73EA7A73D099EA74C
:101E00005148808B514908805148007C002808D1F6
:101E10004D482030008848804B482030808888809A
:101E200008E04948203000884849888046482030EA
:101E3000808848804748406A4021084000280CD1EB
:101E400042480023C35E0222825E0421415E424872
:101E5000FFF77EF94048FFF7A1F870E001F01CFEA3
:101E600000BF00BF00BF00BF00BF01F04DFE3B48F8
:101E7000808D3B4908800846008800043949886104
:101E80003748008800B203F093FC69460090098847
:101E9000A18369464988E1831221615E1C20205E8E
:101EA0004143CA131020205E1E23E35E5843C01333
:101EB000101A00B2A0811020205E1C21615E4843F0
:101EC000C2131220205E1E23E35E5843C013101875
:101ED00001B2E181FFF750F81A4980318886204627
:101EE000FFF7B2FD1820205E1F494843001300B2DF
:101EF00020831A21615E1C484143081301B26183AB
:101F0000204601F0E3FFB0210859804717E0FFF7B2
:101F1000FFF9002060850021A185E185208661868A
:101F2000A186B0210859804709E000206085002182
:101F3000A185E185B0210859804700E000BF00BFBE
:101F4000F8BD0000A00000200014014000000020A7
:101F50008C000020401C01400C050020F4020020F1
:101F60001600002058010020E749000030B5018824
:101F7000438904690A04C56881886343EB1809042E
:101F8000C360934201DD134602E08B4200DA0B4648
:101F9000C3600089444320011818904201DD1046B7
:101FA00002E0884200DA0846001430BD10B513483C
:101FB0000021415E052905DA0088401C00B20F4966
:101FC000088002E001200D4908800C490020085ECD
:101FD000030003F0EDFF060F040B0C0D0E0F084974
:101FE0002220085E074900F017F904E003E002E050
:101FF00001E000E000BF00BF10BD000014000020A1
:10200000A00000205404002010B504460020205EEB
:10201000002802DB0020205E02E00020205E40421B
:10202000164900228A5E90421DDC0220205E0028B4
:1020300002DB0220205E02E00220205E40420F49C7
:1020400000228A5E90420EDC0420205E002802DB23
:102050000420205E02E00420205E40420749002266
:102060008A5E904209DD002001F0DCFD0448008812
:1020700040084000401C0249088010BD2C0400208C
:102080001200002010B53C4803F0AEFC0446FEF7F9
:102090005BFF00B239490880002039490880488038
:1020A0008880384908804880374803F0C9FC00B26E
:1020B00032494880354803F0C3FC00B22F4988807C
:1020C000002033490880334803F08EFC0446FEF7B5
:1020D0003BFF00B2294948812F4803F09BFC04468E
:1020E000FEF73EFF2549C86000202C490880488043
:1020F000C880FF20800503F077FC0446FEF724FF2C
:1021000000B21E490882264803F084FC0446FEF70C
:1021100027FF1A494861184803F07CFC0446FEF783
:102120001FFF164988611F4803F05EFC0446FEF756
:102130000BFF00B211490884144803F06BFC0446FD
:10214000FEF70EFF0D49C86100204884164908803B
:102150001649087008614861886148804860886055
:10216000C860134908804880888012490880124955
:1021700008804880C88010BD000020412C04002049
:10218000A000002054040020000070420000A04184
:102190005E0400209A99993E00004842680400209D
:1021A00000009643CDCC4C3E860400201004002055
:1021B0000C0000207C0400209004002010B50020BA
:1021C0000C4908800C4988800C4988800C4988801B
:1021D00008810C4988800C4988800C4803F030FC49
:1021E00000B20B49C8800B4803F02AFC00B2084932
:1021F000088110BD120000205E0400206804002049
:1022000072040020540400207C04002000006E4270
:102210002C0400200000A44170B505460C461C4962
:102220000220085EA84204DC2088401C00B2208006
:102230000CE017490420085EA84204DD6088401CB9
:1022400000B2608002E00020208060800020205EDC
:10225000C8280BDB002001F0E5FC002020800D48A1
:10226000008804218843001D0A4908800220205E5E
:10227000C8280BDB002001F0D5FC00206080054859
:1022800000880821884308300249088070BD00009A
:102290002C04002012000020002801DA404200B285
:1022A000002901DA494209B2002A01DA524212B287
:1022B000884202DB904200DB0123814202DB914233
:1022C00000DB0223824202DB8A4200DB0323184642
:1022D00070470246002001235B031146814089B20A
:1022E000994203D8401C00B20D28F6DB704700006D
:1022F00010B51420084988810A20C8817D2040013A
:102300000880401048800548C8620548086300F00E
:1023100009F8FFF71DFD10BD58010020306B0000CB
:102320005C6B0000F0B5FF4E0A20F56A87B0285EAE
:10233000346BFEF701FA0746FB492069FDF7EDFF14
:102340006169FEF727F8A169FEF724F83946FEF720
:1023500021F8FEF73BFAF0610020205EFEF7ECF971
:10236000F24F009039462069FDF7D7FFE169FEF78B
:1023700011F80099FEF70EF8FEF728FA30620120F6
:1023800000076968FDF7D2FE70620020205EFEF74C
:10239000D3F9009039462069FDF7BFFF216AFDF7A8
:1023A000F9FF0099FDF7F6FFFEF710FAB062A28977
:1023B0006E6864204243F117F00849070143D317C0
:1023C0007007FDF7F7FE0905000B0843D84E64219E
:1023D000F0826868FDF7AAFE0004A189FDF7A6FE59
:1023E00030832A691921D317009317464904E868F6
:1023F00003F0AEFD3A46009BFDF7DCFEA289002308
:10240000FDF7D8FE0121C903081A3060C9480390BE
:1024100068692A69C117C60C4903D31731434003C1
:10242000FDF7C8FE80B20290002664216868FDF7BF
:102430007DFE0746C0170190A089009038463246BD
:102440000199FDF71AFF012252030023FDF7B2FEA6
:102450000023009AFDF7AEFE7D218901884202DA51
:10246000761C36B2EAE7C1170023039AFDF7C8FECF
:102470000023029AFDF7C4FECA00410FAC48114385
:1024800041601E3E012146738902818200262F6928
:102490000020FB170093205EA74903F059FD324648
:1024A000FDF7EBFE3A46009BFDF784FE0A27EF5F3F
:1024B000FB173A46FDF77EFEA2890023FDF77AFE60
:1024C0007D21C901884202DA761C36B2DFE79B49DA
:1024D00003F03EFD0903000D084395490E3E886058
:1024E000084686730020205E954AA9695043FDF78F
:1024F00007FE8C4988620020205E924948430214FE
:102500000A200092285E9049484306147D21A08944
:10251000C900FDF7F5FD8D49F31788838148002137
:10252000008832460593FDF76BFE2A69D317FDF745
:1025300067FEFF23009A87335A430092D217019215
:10254000019B009AFDF736FE764980B288800490A0
:10255000A089FEF717F903910290724904984988FF
:1025600003F00EFDFEF71CF90022794BFEF704F88C
:10257000039B029AFEF768F8FEF766F9694932464E
:10258000C880084600880021059BFDF739FE6A696E
:10259000D317FDF735FE019B009AFDF70BFE87B2BE
:1025A00060480781A089FEF7EDF806465D48009176
:1025B0004188384603F0E4FCFEF7F2F80022644B51
:1025C000FDF7DAFF3246009BFEF73EF8FEF73CF9D6
:1025D0005449574B4881084681881C331981C0886B
:1025E00058811C33198158815A48642181800A23FB
:1025F0007D220383D2000280018183810182828255
:102600000021418041814182C181C182C1804183D9
:10261000605EA0214843504E000CB083FFF759FE86
:10262000F0830021615EA02251431027381AC14077
:10263000B18300203083FFF74CFE7083391AE1200C
:102640000001C84030830A20285E44494843800C7A
:102650003080FFF73EFE014670800A20285E3F4A28
:1026600050431222511AC84030800020205E3C495D
:102670004843800DB080FFF72CFEF0800146002318
:10268000E35E374843431620401AC340B38068686E
:10269000010C31810846FFF71CFE70816A68381A08
:1026A000C24032810A21695E2E48FDF729FD010CE6
:1026B0002D4E08463180FFF70CFE708000900A21F5
:1026C000695E2848FDF71CFD0099791AC8403080E2
:1026D0000021615E2548FDF713FD000CB080FFF777
:1026E000F8FDF08000900021615E2048FDF708FDB4
:1026F00001460098381AC140B1803F0338466968E6
:10270000FDF7FEFC80B23081FFF7E3FD70813B46B0
:10271000834018466968FDF7F3FC3081122030834E
:1027200026E00000580100200046E2460000204755
:102730001412002010C9000040420F002F8806002C
:10274000F2660100CE9300000A6A01003802002000
:102750000000244094020020B40200205B2300000B
:10276000181700008DF61C00D4020020B172C502BB
:10277000FFF7AFFD87407083E12109013846FDF77F
:10278000BFFC30830021615E0A20012541432D03F7
:102790002846FDF7CBFC80B2B083FFF79AFDF083AB
:1027A0000021615E0A22514385402846FDF7A8FCBE
:1027B000B08302493220C88607B0F0BD580100201E
:1027C0007047F0B50B46002200240025002100BF11
:1027D00057E00126964034461E6826403546A542FD
:1027E0004ED11E79002E0CD101680126964031434E
:1027F00001604168012696400F46B7433946416063
:102800001FE01E79012E0BD1016896400F46B74399
:10281000394601604168012696403143416010E02D
:102820001E79022E0DD10168012696400F46B7434E
:10283000394601604168012696400F46B743394644
:1028400041605E79012E04D10169964031430161F6
:1028500009E05E79002E06D10169012696400F46F7
:10286000B7433946016181699E68012E02D19640C5
:10287000314304E0012696400F46B7433946816153
:10288000521C102AA5D3F0BD30B50C46230003F02E
:102890008FFB10090F171E252B333A41474F565D0A
:1028A000636B7279016A394D29408B1803626AE0C3
:1028B000016A364DE13D294013015B18036262E075
:1028C000016A334D294013025B1803625BE0036A1F
:1028D0001905090D13035B18036254E0416A2B4D7F
:1028E00029408B1843624EE0416A284DE13D294062
:1028F00013015B18436246E0416A254D29401302EB
:102900005B1843623FE0436A1905090D13035B1826
:10291000436238E0816A1D4D29408B18836232E0A2
:10292000816A1A4DE13D294013015B1883622AE058
:10293000816A174D294013025B18836223E0836A82
:102940001905090D13035B1883621CE0C16A0F4D62
:1029500029408B18C36216E0C16A0C4DE13D294045
:1029600013015B18C3620EE0C16A094D29401302CE
:102970005B18C36207E0C36A1905090D13035B18EE
:10298000C36200E000BF00BF30BD0000F0FF0000E8
:10299000FFF000000021016001714171816070470A
:1029A0000EB56846FFF7F6FF0121684601713F202A
:1029B0000001009069462748FFF703FF0322042126
:1029C0002448FFF761FF032205212248FFF75CFF3F
:1029D000032206211F48FFF757FF032207211D4846
:1029E000FFF752FF032208211A48FFF74DFF032289
:1029F00009211848FFF748FF6846FFF7CBFF002181
:102A0000684601710320C0020090694611484030B9
:102A1000FFF7D7FE6846FFF7BDFF0021684601714A
:102A20007020009069460B484030FFF7CAFE022232
:102A3000042108484030FFF727FF022205210548FE
:102A40004030FFF721FF0222062102484030FFF705
:102A50001BFF0EBD4020014070B5044600266620D5
:102A6000005D062810DB002506E0A90020460C309A
:102A700040588619681CC5B2062DF6DB0621304683
:102A8000FDF73EFB06460DE02420005D8200204657
:102A90000C3080586168081846080120C00386423F
:102AA00000D2054E2420005D810020460C304058A5
:102AB0006060304670BD000055554D01F8B50246C6
:102AC000014640328031034614468E7BA0331D7E82
:102AD0009278A48D002E0BD0868EFF272D37BE4214
:102AE00006D90E7A002E03D1C726365C002E03D0FD
:102AF000AA4279D1098AF7E0AA4201D10E8A19E0E7
:102B00005E7EB24201D14E8A14E09E7EB24201D175
:102B10008E8A0FE0DE7EB24201D1CE8A0AE01E7FAD
:102B2000B24201D10E8B05E05E7FB24201D14E8BE5
:102B300000E0868DB6B23619341946866C4EA4B2C2
:102B4000AA420DD11C228A5E53019A1AB388E31A55
:102B50001BB2D218D317DB0E9A1852118A8357E092
:102B60005D7EAA420DD11E228A5E53019A1AB38855
:102B7000E31A1BB2D218D317DB0E9A185211CA836C
:102B800046E09D7EAA420DD120228A5E53019A1A08
:102B9000B388E31A1BB2D218D317DB0E9A1852115E
:102BA0000A8435E0DD7EAA420DD122228A5E5301DD
:102BB0009A1AB388E31A1BB2D218D317DB0E9A18ED
:102BC00052114A8424E01D7FAA420ED124228A5E3B
:102BD00053019A1AB388E31A1BB2D218D317DB0E2B
:102BE0009A1852118A8413E064E05B7F9A420DD1F7
:102BF00026228A5E53019A1AB388E31A1BB2D218AE
:102C0000D317DB0E9A185211CA8401E0828D4286D6
:102C10008A89384B9A4202D2521C8A81F8BD00241C
:102C20008C7369460C70344B5A4226E00978334E57
:102C3000490009189C310D88AD190D806946097845
:102C40009C25490009184D5F694609789D4204DDBD
:102C50004900091880318B830BE0490009189C2535
:102C60004D5F954205DA69460978490009188031B7
:102C70008A836D462978491C297069460978062996
:102C80006946D3D30C7010E06A4611781278490077
:102C9000091890310B88520012188032928B9A1AC0
:102CA0000A806A461178491C11706946097806291C
:102CB000EAD3F8BD5D7EAA4201D1498A14E09D7E27
:102CC000AA4201D1898A0FE0DD7EAA4201D1C98AD8
:102CD0000AE01D7FAA4201D1098B05E05B7F9A4281
:102CE00001D1498B00E0818D89B209194186F8BD77
:102CF00078000020DC050000AB0A0000AB2A0000D1
:102D000010B50249024800F005F810BDF402002099
:102D100000100140FEB505460C4668680121090413
:102D20000840002857D0E06BA9684018E0630120F4
:102D30000004686000BF68684005410F0091684664
:102D4000077800BF2146384603F03EFA0646002EBB
:102D500041D02420005D052806D02420005D401CC1
:102D6000C1B22420015502E0002124200155207821
:102D7000002802D0002020701FE0C721095D002933
:102D80000DD0A06A304A50433049884200D20846EC
:102D90002421095D890022460C3250500CE02B4A58
:102DA000E16B914201D21146E1632422125D92004F
:102DB00023460C33E16B995000BF0020E063A06212
:102DC0002046FFF749FEA0605420005D002802D194
:102DD000204600F0FBF868680121490408400028FB
:102DE00031D0084668605320005D04210843532118
:102DF000085500214E200155242001550020019046
:102E00000BE013492420005D820020460C308150E5
:102E100068460079401CC1B20191684600790628D5
:102E2000EFDB0B48A060284600F077FF07462146FD
:102E3000384603F0C9F906465420005D002802D147
:102E4000204600F0C3F8FEBD701700003A120000E3
:102E500055554D0110B504460121022001F0E4F959
:102E60002088A17809040843E178090508432179FD
:102E700009060843617909070843A179490708430E
:102E8000217B8907084303490860A068C8600020C7
:102E9000486010BD0010014070B504460020208736
:102EA0000521242001555320005D042108435321AE
:102EB0000855002508E03A492420005D820020469C
:102EC0000C308150681CC5B2062DF4DB3448A0607C
:102ED000204600F07BF85320005D042188435321F5
:102EE00008553049902001532F4992200153012168
:102EF000C903942001532D49962001532C49982051
:102F0000015300219A2001532A48007C002812D145
:102F10000321B82001550221B92001550621BA200C
:102F200001550421BB2001550521BC20015501217B
:102F3000BD20015511E00321B82001550121B92020
:102F400001550521BA2001550421BB200155062158
:102F5000BC2001550221BD200155204603F098FBFD
:102F60001549C02001517821522001551148007C9B
:102F7000002803D10E496E20015302E00F496E2054
:102F800001530621782001550D4820670D486067E0
:102F90000D498420015300218020015170BD0000A3
:102FA00055554D01AB2A000055550000ABAA000055
:102FB00055D500008C000020806B00008DE30000E0
:102FC000808D5B0027AE7000CC4C0000FEB504463F
:102FD0005320005D0421084000280AD0002166200B
:102FE000015567200155682001536E20015B6C205C
:102FF0000153216FA068884246D26620015D782087
:10300000005D814206DA6620005D401CC1B2662088
:10301000015549E06620005D142805DA6620005D50
:10302000401CC1B266200155012167200155532083
:10303000005D80210840002812D06E20005B5149BD
:10304000401A81B26C2001534E20005D00282BD025
:10305000002166200155672001554E20015523E0CF
:103060006E20005B4749401881B26C2001534E200E
:10307000005D002818D10021662001556720015508
:1030800001214E2001550FE06720005D002802D08D
:103090000021682001530021672001556620015559
:1030A0006E20015B6C2001532046FFF707FD432093
:1030B000015D4220005D814242D05320005D8021AD
:1030C000084000281AD06A20015F0F2904DA005B4B
:1030D000401C01B26A2001534E20005D002806D139
:1030E0006820005B401C81B26820015302E000218F
:1030F000682001530121E42001551DE06A20015F91
:103100000E20C043814205DD6A20005B401E01B2F3
:103110006A2001534E20005D002806D06820005B25
:10312000401C81B26820015302E000216820015355
:103130000021C943E42001554220015D432001558F
:103140002046FDF7A5FEA08E01B22046803003F098
:1031500083FCE086E08EFDF715FB054600220A4B56
:10316000FDF70AFA01910090FDF7B4FB074602F063
:1031700051FC0290FDF7F4FEE4210A575043E02190
:103180000851FEBD551500000040CF3F1FB56846F1
:1031900000F014F801214902684601800021817085
:1031A000C17001210171417181710348029068462B
:1031B000FFF750FE1FBD0000007C92000749018010
:1031C000002181700121C170017141710021817163
:1031D0007D21C9008160002101737047FF03000059
:1031E00010B50446A06A401CA0626520005D00285E
:1031F0002AD00A20C721095D002900D005203021EE
:10320000615E00290FDD3021615E814207DD218E84
:10321000091A09B22186A18D0918A18513E000229F
:1032200065210A550FE03021615E4242914207DA82
:10323000218E091809B22186A18D091AA18502E003
:10324000002265210A5500BF6720005D002803D0D9
:10325000204603F065F902E0204603F00EFC10BDA5
:1032600038B52448007D02282FD10121214801755D
:10327000002181760183C18200201E494039888562
:1032800000211C4878308171002000900AE0002263
:103290001848783069460978425468460078401CDE
:1032A000C1B20091684600780628F0DB012012497F
:1032B000C8707F20C00502F097FB0446FDF744FE6E
:1032C00001B20E48C181002101820A48007D012817
:1032D0000FD17F20C00502F087FB0446FDF734FEC6
:1032E00001B20648C181002101820248403803F042
:1032F000F1FA38BD340300208C000020E0000020EB
:1033000008B572B62E482F4908632F480068C912C5
:1033100008432D490860FEF7F3FC02F0F5FAFDF7CB
:1033200033FC00F0EFFA02F021FBFFF739FBFEF768
:103330008FFC00F059FCFEF710F9FFF727FF02F0B1
:1033400019FA642001F02AF80220204908600021BF
:10335000112002F067FE0221082002F063FE012125
:103360000B2002F05FFE0221092002F05BFE022129
:103370000D2002F057FE00210F2002F053FE022123
:10338000002002F04FFE0B2002F03CFE092002F06C
:1033900039FE002002F036FE0F2002F033FE11202D
:1033A00002F030FE00200123DB02094A09A100904F
:1033B000012000F0D9FC00F08DFF62B608BD0000CE
:1033C000837A00008000004000040040005001406B
:1033D000580500204A53636F70655F69326932692E
:1033E0003200000070470000F8B5214F388A798A12
:1033F000401805B2B88AF98A401804B2388B798B24
:10340000401806B2324621462846FEF745FFC0B2B4
:10341000012811D002281CD01649281B4843C1138B
:103420007000401B144A001B5043C013FEF7B8F84D
:1034300011494018B881F8BD0E49A01B4843C1137B
:103440006800001B0C4A801B5043C013FEF7A8F80D
:10345000F0E70849701B4843C1136000401B064A4F
:10346000801B5043C013FEF79BF80449E1E70000BE
:10347000DC030020E7490000ABAA0000555500001E
:10348000F8B50024354F364E25463649887A01284E
:103490005FD1C87A07285CD2401CC0B2C87202F063
:1034A000E3FB2E488038418D49420186818D494297
:1034B0004186C18D49428186386B80472B492A4815
:1034C00048632A482A4A403842632A484863012010
:1034D00000F0A8FB3561234A106831698142FCD3B2
:1034E0002048807F012813D01C4880384585858579
:1034F000C585386B80471D4A1B4850631B491C48D3
:10350000403948631B48506335613069C828FCD393
:1035100003F0C8FA03F0C6FA10480121603841767A
:10352000022181762038FDF76FFC0E48C07A00F04A
:103530009BFB002000F076FB35610A4A5068316938
:103540008142FCD3D07A062803D1D5729572FFF759
:103550004BFF641CE4B2062C97D3F8BD2001002079
:1035600000100140DC030020ADDE0000401C0140E3
:10357000FFFF0000CDAB000070B504466168206815
:10358000401AC1176369226980185941616120613D
:103590000822A25E2569284666693146FCF77DFE51
:1035A0006060606870BD00001748408D404200B206
:1035B000164908801448408D88801548007C0028F2
:1035C00010D11148808D404200B208810E48808D94
:1035D00088810D48C08D404200B208820A48C08DE3
:1035E000888210E00848C08D404200B20749088137
:1035F0000548C08D88810448808D404200B2088211
:103600000148808D88827047A0000020001C014086
:103610008C00002010B504460121082000F004FEB3
:10362000B048B1494863A078E1788900084321791E
:10363000C9000843617909020843A17909030843D5
:10364000A94908622088A84940390863208A00B245
:10365000A54920390880608A00B28880A08A00B21B
:103660000881E08A00B288812820005D2921095D57
:10367000490008433921095D890008433821095D63
:10368000C90008433121095D090108433021095D62
:10369000490108434021095D890108432189C90185
:1036A00008432A21095D090208432B21095D4902CB
:1036B00008433B21095D890208433A21095DC9029B
:1036C00008433321095D090308433221095D490399
:1036D00008434121095D890308436189C9030843FF
:1036E000814908612C20005D2D21095D49000843B6
:1036F0003D21095D890008433C21095DC90008435B
:103700003521095D090108433421095D4901084358
:103710004221095D89010843A189C90108432E217D
:10372000095D090208432F21095D490208433F2131
:10373000095D890208433E21095DC902084337211A
:10374000095D090308433621095D49030843432104
:10375000095D89030843E189C90308436249486157
:103760006820005D6921095D490008436A21095DFF
:10377000890008436B21095DC90008435A49C860A4
:103780004A20005D4B21095D490008434C21095D39
:10379000890008434D21095DC90008434821095D9E
:1037A000090108434921095D490108434E21095D8A
:1037B000C90108434F21095D090208435021095DF1
:1037C000490208435121095D890208435221095DDC
:1037D000C90208435321095D090308435421095DC7
:1037E000490308435521095D890308435621095DB2
:1037F000C90308433C4948624420005D4521095DF6
:10380000090108434621095D490108434721095D33
:103810008901084334498861208B3349403108606D
:10382000608B4860A08B8860E08BC860208C08614A
:10383000608C4861A08C8861E08CC8612B482A4963
:1038400048605720005D5821095D4900084359210F
:10385000095D890008435A21095DC90008435B21BD
:10386000095D090108435C21095D490108435D21A7
:10387000095D890108435E21095DC90108435F2193
:10388000095D090208436021095D4902084361217D
:10389000095D890208436221095DC9020843632169
:1038A000095D090308436421095D49030843652153
:1038B000095D890308430C49403988636620005D2F
:1038C00000016721095D490108430749086007486D
:1038D0000549403948630020486305480249486368
:1038E00010BD0000ADDE0000401C0140FFFF0000E5
:1038F000FECA000010B504466C212046FCF7F9FC16
:1039000010BD000000B59BB06846FFF7F3FF002133
:10391000684681700121C1700171002101814181DE
:1039200081810C21417181712349018023490182E8
:103930002149491E41827321018341838183C183CF
:1039400001844184012108A80172002141720121F2
:1039500081720021C172012101730021417310A8FD
:10396000017041708170C1730121017400214174A3
:10397000012181740021C17401210175817341719C
:1039800000218171C17518A8817110A801720121EF
:10399000817200210173012118A8C17110A8417220
:1039A000C172002141736846FFF734FE0448006984
:1039B000044988831BB000BDB80B000052F400001E
:1039C000401C0140DC030020F8B5284D1623EB5EB7
:1039D000274C1422E380AA5E1846114658435143EF
:1039E000244F228140183863786B234900B2088243
:1039F000A16B0604761AF6107118A163E98E88424D
:103A00000ADDC90339627862B86A80B24343D913C8
:103A10004243E180D01320811848194E0068F18A92
:103A200040104843174989694018001401F0C0FE4E
:103A3000E8611C2206231E200821AA5EE35E285EA0
:103A4000615E174604465F434C433C1B58434A4360
:103A50008018C01301B2708BE41324B244432213C4
:103A600041432A8308136883F8BD0000A0000020AA
:103A7000200000200050014038020020E00100201A
:103A8000141200205801002002480021C160816109
:103A9000816070473802002030B51748174B018A03
:103AA0001C250A04C168521A12125118C1600C1464
:103AB000455F1A7801464969954206DD521C1A7025
:103AC0000F4A12698918416130BD00251D70826955
:103AD000D3009A1A5118C91081610A494561896A4F
:103AE0006143091341800A048168521A5211511826
:103AF00081600914818030BD3802002068000020F8
:103B0000E00100205801002070B51D481E4C0379CB
:103B10001C4D1E4A1E482169042B16D81D4E2368D1
:103B2000F68A5B1073436E699B196B61AB610E2360
:103B3000D35E93621023D35ED36261600021C181A2
:103B4000818A01820120107070BD2B69AB616160B8
:103B50001378012BF8D1022313702160118D01829B
:103B6000918DC18150890304094840308361908957
:103B7000074A0004403AD06788050749C86070BD0D
:103B80008C00002058010020E001002020000020CF
:103B9000E0000020141200205C020020014648686A
:103BA000C200C868904208DA0023CB5EC868C0181B
:103BB000C860C868904200DBCA60C868904208DDEF
:103BC0000223CB5EC868C01AC860C868904200DA99
:103BD000CA60C868C0108860C868904201D10120DE
:103BE00070470020FCE7000010B50121042000F020
:103BF00001FB0121082000F0FDFA0121102000F056
:103C0000F9FA0121202000F0F5FA0448044908637C
:103C10000020C90508620249086310BD837A0000CC
:103C2000800000400A490B4A5163012806D1114621
:103C3000496A40221143074A516205E00549496A31
:103C4000054A1140034A51620449024A51637047D0
:103C5000ADDE0000401C0140BFFF0000FECA0000B6
:103C600010B500F057FB10BD10B51549154B8C7FF2
:103C700000229A5E012C0DD00221595E1B885B1830
:103C80005B421CB2030002F093F90708090C0F1203
:103C90001518080040004018C28110BD0848028273
:103CA00010BD0748428210BD0548818210BD0448FE
:103CB000C18210BD0248048310BD0148448310BD79
:103CC000DC030020A000002070B505460E46144617
:103CD0000220285E0221715E4843002805DB022095
:103CE000285E0221715E484305E00220285E022121
:103CF000715E484340420021695E0022B25E51433A
:103D0000401860606068A06020460830FFF734FC0F
:103D100020602068C011206070BD08B50146486869
:103D20004207520F00926846007808BD10B50D4A50
:103D30000B49936ACA14012B0B460B680DD0134331
:103D40000B6059231B064B604860C86895231B060F
:103D50004B600B6893430B6010BD9343F0E700008A
:103D60000004004080000040FFB581B004460E46CC
:103D7000174600BF20480078002801D102F026F83D
:103D800000BF1D480069A04230D9EFF310810846FA
:103D9000012181F3108800BF00BF002C18D018212A
:103DA0006143154A183256501821614389184F60F3
:103DB00018226243104B1833D218049991600022E4
:103DC00018216143C9180A6118216143C918CA60E2
:103DD00018226243084B1833D2180A995161C1B2B4
:103DE00081F3108800BF00BF002501E00025ED43EE
:103DF000284605B0F0BD00005C0D0020F8B5044673
:103E00000D46164600BF0E480078002801D101F08B
:103E1000DDFF00BFEFF310800746012080F310881C
:103E200000BF00BF32462946204600F00BF8009044
:103E3000F8B280F3108800BF00BF0098F8BD000002
:103E40005C0D0020F7B582B0074616460398019036
:103E5000182078431B4940180090009840690028BA
:103E600004D0012811D0022826D11EE0009801F0CC
:103E7000E5FF0546B54201D2002405E0344632464E
:103E80000199009802F028F818E0009801F0D6FF98
:103E90000546B54201D2284600E030460446224697
:103EA0000199009802F018F808E03246019900984C
:103EB00001F0D2FF044601E0002400BF00BF20460D
:103EC00005B0F0BD740D002070470000FCB5418BBB
:103ED000182349420AB24283C35E69460B804949AE
:103EE00002254A43990351184942CA17520C5118E6
:103EF000C9130CB269464C80191949420AB2694685
:103F00008A8001462031A3421CDC93420BDC9442A0
:103F100004DC01264E760E76164602E04D760D76CE
:103F200026469E191EE01619F70FBE1976109B1B28
:103F30006F463B80A31B7B80921BBA8003224A768C
:103F40000D7629E0944218DC934205DC04264E7677
:103F500001260E76164604E005264E7603260E76DA
:103F60001E46A619F70FBE1976109B1B6F463B80A5
:103F7000A31B7B80921BBA800EE0D618F70FBE19E8
:103F800076109B1B6F463B80A31B7B80921BBA80E5
:103F900006224A7603220A76AC2300221B58BA5E18
:103FA0000124A4039E8912197243D213643E9642DF
:103FB00001DA324602E0002A00DA002242850222BB
:103FC000BA5E9E8912197243D213643E964201DA98
:103FD000324602E0002A00DA002282850422BA5E1C
:103FE0009B8912195A43D213643B934201DA1A4651
:103FF00002E0002A00DA0022C285012048768D7690
:10400000FCBD0000DA6E0000F3B587B00D46002657
:1040100000270020039002900190744800886946B0
:1040200008833920405D030001F0C2FF07530519E2
:104030002D42474C53004620415F6A461820105ECF
:104040000C1A6B48844200DD05E06948C043844295
:1040500000DA00E0204606B2012002903BE0482052
:10406000415F6A461820105E0C1A6148844200DDE8
:1040700005E05F48C043844200DA00E0204607B212
:104080000120019027E04A20415F6A461820105E17
:104090000C1A5748844200DD05E05548C04384426D
:1040A00000DA00E0204600B203900120019012E007
:1040B0000026AE5F012002900DE00227EF5F012095
:1040C000019008E0288840426988401A00B20390B5
:1040D00001E0002400BF00BF44488088694608838F
:1040E0003A20405D030001F063FF075105192D40A0
:1040F000454A51004620415F6A461820105E0C1A5E
:104100003B48844200DD05E03948C043844200DA80
:1041100000E0204606B20120029039E04820415FCD
:104120006A461820105E0C1A3148844200DD05E012
:104130002F48C043844200DA00E0204607B2012045
:10414000019025E04A20415F6A461820105E0C1A53
:104150002748844200DD05E02548C043844200DA58
:1041600000E0204600B2039012E00026AE5F01207E
:1041700002900DE00227EF5F0120019008E02888FF
:1041800040426988401A00B2039001E0002400BF59
:1041900000BF029800280DD1794203980C1A1448E8
:1041A000844200DD05E01248C043844200DA00E0AA
:1041B000204606B2019800280DD1714203980C1ACE
:1041C0000B48844200DD05E00948C043844200DA20
:1041D00000E0204607B2684606824782062204A90C
:1041E0000798FCF76DF809B0F0BD0000001401401D
:1041F000FF7F00000A4A0B4B1A63002905D0DA053D
:10420000526B0243DB055A6306E001229207526BB0
:10421000824301239B075A630022024B1A637047B3
:10422000837A000080000040094A0A4B1A63002983
:1042300004D01A46D2690243DA6104E0054AD26921
:104240008243044BDA610022024B1A63704700007C
:10425000837A00008000004010B50446012C2FD165
:104260001949086019481A490863C805806B032179
:1042700009028843A10788630A2000F09BF8A00781
:10428000806B2102084389058863642000F092F85E
:1042900000BF0120800780690121490308400028F0
:1042A000F7D14804806B03210902084301218907E3
:1042B0008863112001F08AFE00200549086302E0AE
:1042C00000200149086010BD18000020837A00001A
:1042D0008000004010B50D480068012812D100216F
:1042E000112001F0DBFE1120002809DB00BF00BF18
:1042F000C206D20E01219140054A116000BF00BFE5
:1043000000BF02E0112001F06DFE10BD180000207A
:1043100000E100E0112001F065FE112001F056FEE1
:104320001848194948630846406A4021884316499D
:1043300048620846006A0C2188431349086200203D
:104340004863124812490863FF20C86208460068A3
:10435000891588430E490860C805406BC913884316
:10436000C903486300200A49C862086300BFBFF35D
:104370004F8F08480849C860BFF34F8F00BF00BF88
:1043800000BFFDE7ADDE0000401C0140837A000065
:10439000800000400400FA0500ED00E008B50021AF
:1043A000009103E000BF0099491C009100998142EF
:1043B000F8D308BD08B50021009103E000BF0099C3
:1043C000491C009100998142F8D308BD10B50446FC
:1043D0000D482168006E091AE1620C49E06A8842C2
:1043E00001DD084607E009494942E06A884201DAEE
:1043F000084600E0E06AE0622046203000F027F83E
:104400000349488210BD000074030020FF7F0000B4
:10441000E0000020C2680168914209DA026C01687C
:1044200089180160C2680168914201DBC1680160BE
:10443000C2680168914209DD426C0168891A016015
:10444000C2680168914201DCC16801607047F0B543
:104450008FB004462068C117820A8905114385057B
:104460000E466068C117820A8905114380050191D3
:104470000090E768F9176089002203920591049083
:104480003846039B049AFBF7BBFEE161A0612369F8
:10449000E269A16960695918504121616061324641
:1044A00061692069281A8A4102DA666125610AE099
:1044B0006369226901990098101A8B4103DA019906
:1044C000009861612061E068C217218900230A9386
:1044D0000C920B910D9011460B9AFBF791FE8023E5
:1044E000002207930692089109901A46069BFBF753
:1044F00087FEE161A061A36962692169E0695918D9
:104500005041A161E0613246E169A069281A8A41FF
:1045100002DAE661A5610AE0E369A26901990098FF
:10452000101A8B4103DA01990098E161A061E169F9
:104530008902A069800D08430290029800B20FB072
:10454000F0BD0269D10182698A4208DA1423C35E90
:104550008269D218826182698A4200DB8161826944
:104560008A4208DD1623C35E8269D21A826182699B
:104570008A4200DC8161704710B500202249086042
:1045800022480221415E322909DA4088401C00B2EB
:104590001E4948801E4800681E49486014E01B48B8
:1045A0000221415E962909DA4088401C00B2174971
:1045B0004880174840681749486005E004201649BC
:1045C00008710020114948803F20000601F00CFAD4
:1045D00000B2104908803F20000601F005FA00B241
:1045E0000C4948800846FFF7D9FA0C480088094969
:1045F0008968484309498978084101B2084801821D
:10460000018A818210BD0000E0010020FC0300202F
:1046100090010020780200208C000020D4020020AD
:10462000E000002010B56B48C089401C00B2694909
:10463000C881FF21F531884278DB00206549C881B7
:1046400065488078002802D0012870D15DE0634879
:10465000008C6349898F884253DD60493620085EAB
:104660005F49096C4942884203DA12205A490871AD
:104670004AE05A493620085E5949496C884203DAB3
:104680001220554908713FE01420564988810A20BC
:10469000C88165204F49C8800020C880524801F079
:1046A000A3F90446FCF750FC00B24D4908834E487C
:1046B00001F09AF90446FCF747FC00B248494883E8
:1046C0007F20C00501F090F90446FCF73DFC01B2E3
:1046D00046484182418AC18140493620085EFCF744
:1046E0003FFC4349486008464068086002213C4856
:1046F000203081700120FFF795FA072036490871B4
:1047000002E012203449087161E03448008C3449D9
:10471000898F884256DD31493620085E3049096C60
:10472000884205DD12202C4908714EE050E04DE032
:104730002A493620085E2A49496C4942884203DDED
:1047400012202549087140E01420264988810A205A
:10475000C88165201F49C8800020C880224801F018
:1047600043F90446FCF7F0FB00B21D4908831E48DC
:1047700001F03AF90446FCF7E7FB00B21849488318
:104780007F20C00501F030F90446FCF7DDFB404214
:1047900001B216484182418AC18110493620085E23
:1047A000FCF7DEFB124948600846406808600221B9
:1047B0000B48203081700120FFF734FA07200649AA
:1047C000087102E012200449087100E000BF00BF38
:1047D00010BD0000FC0300208C0000200C05002010
:1047E0009001002058010020CDCCCC3DE0000020FD
:1047F000E001002010B513491020085E7D21C9009A
:10480000884209DA0120FFF70DFA0E48008A401CA1
:1048100000B20C49088213E000200A490882FFF721
:1048200001FA012008490871002001F0C7F8074982
:10483000098B48430549897EC84000040449486102
:1048400010BD0000FC0300208C000020D4020020DA
:104850005801002010B55E48807B002822D101203D
:104860005B498873E12080005A49488501465948D0
:104870008185C185408D404200B256490886084670
:10488000808D404201B253484186C08D404201B202
:104890005048818601468031086B804700204E4990
:1048A000088078E04C480088002815D14B484C49D6
:1048B00048634C48808B4C49084349490861494842
:1048C000808B0C2108434649486100204863012041
:1048D000FFF7A8F900BF21E03F48008864280CD109
:1048E0003E483F4948633F48808B404908433C4924
:1048F00008610020486300BF10E037480021415E96
:10490000C8290BD13548364948633648808B082181
:104910000843334948610020486300BF2E49002006
:10492000085EFF212D31884206DA2B480088401CA2
:1049300000B2294908802EE00020FFF773F972B613
:10494000002024494885002122488185C185408D69
:10495000404200B21F4908860846808D404201B29D
:104960001C484186C08D404201B21A4881860146EA
:104970008031086B8047FF20194940394863FEF7B2
:10498000C1FF1B48806B042108431949886362B644
:1049900001200F49C8730E48C07B012817D10020A1
:1049A0000B4988730C4908800949C87300F06AF9FB
:1049B000012010490871002001F000F80E49098B10
:1049C00048430D49897EC84000040C49486110BD28
:1049D00090010020A0000020FC030020ADDE0000BC
:1049E000401C0140DC030020080C00000C08000003
:1049F000801401408C000020D402002058010020C7
:104A000070B50024002150480182C1814F48415EA9
:104A1000002903DA4E484068444201E04C484468AB
:104A20004C488088401C00B24A498880FF21F531FB
:104A3000884271DB002047498880474880780028F9
:104A400002D001287CD13CE0444840694042A04269
:104A500006DD092040490871C8203E4908812FE041
:104A60003E480069A04206DD09203B490871C82084
:104A70003849088124E03848807800280AD17F200E
:104A8000C00500F0B1FF0546FCF75EFA01B22E4802
:104A9000C1810EE03048807801280AD17F20C0050E
:104AA00000F0A2FF0546FCF74FFA404201B226484B
:104AB000C1810720284908710221284820308170CF
:104AC0003FE0264800694042A04227DD2248807826
:104AD00000280AD17F20C00500F086FF0546FCF7BC
:104AE00033FA01B21848C1810EE01B4880780128D2
:104AF0000AD17F20C00500F077FF0546FCF724FAB5
:104B0000404201B21048C1810720134908710221B7
:104B100012482030817012E014E011E00F48406923
:104B2000A04206DD09200C490871C8200949088106
:104B300005E0092008490871C8200649088100E0FD
:104B400000BF00BF70BD0000E00000202800002072
:104B500038020020FC0300208C000020900100207F
:104B600010B500200249C870FFF75CF810BD0000C6
:104B70008C00002010B53C480C21415E642923DAEA
:104B80008089401C00B238498881384880780028E4
:104B90000AD17F20C00500F027FF0446FCF7D4F9B6
:104BA00001B23348418257E030488078012853D120
:104BB0007F20C00500F018FF0446FCF7C5F940420D
:104BC00001B22B48418247E027480621415E642913
:104BD00014DAC088401C00B22349C88024490E2042
:104BE000085EC117820A89051143820521480263C4
:104BF00041632148006E1F49086017E01F48008C80
:104C0000401C00B21D49088400280FDB00200884E6
:104C100016488078002804D10846406B1549C860C2
:104C200004E01648406B40421249C860144800F046
:104C3000F1FE0446FCF794F90E490864104800F0B0
:104C4000E9FE0446FCF78CF90A4948640846FFF778
:104C5000E1FB0848FFF7BAFB002105488182FCF719
:104C60006BFEFCF7ADFE10BDFC0300208C000020A5
:104C7000E0000020E00100207403002090010020EB
:104C8000CDCC4C3D7CB50020FEF7CCFF8C4800F02D
:104C9000C1FE8C4908618C4800F0BCFE894948611E
:104CA00000208A498877782008840C2048840020D6
:104CB0004860488008808860886148610882C860D0
:104CC000FEF7E2FE82498888FBF75CFD054600227C
:104CD000804BFBF751FC01910090FBF7B5FD794942
:104CE00088877D4800F096FE764908647A4800F08F
:104CF00091FE74494864002078498870714988732E
:104D0000C87300F05BFE6F498881754800F06CFE47
:104D10000546FCF719F900B26A490883704800F0AB
:104D200063FE0546FCF710F900B2664948836D48FA
:104D30006D490880488088808031086B8047002159
:104D4000694840300182C1814038C18100206649F4
:104D500088810882002164484182403081824182FA
:104D600000206149088048808880088600215E48CC
:104D7000418681868C30C16041618C38C16770305A
:104D80004161002058490883002157484183C1826E
:104D9000002055498882888400215348C1840185B8
:104DA0003F20000600F020FE464908607F20C00535
:104DB00000F01AFE4349486000204C498882C882AE
:104DC00088614860C8608860494800F023FE3D491A
:104DD000886000213B4820308170002039490884D8
:104DE0007D21090143480185491041850022014682
:104DF0000A634A63404800F0F7FD0546FCF7A4F853
:104E00003C4908623D4800F0EFFD0546FCF79CF880
:104E10003849486200213748C1620020354908609E
:104E2000C860374800F0F6FD0546FCF799F83149AF
:104E30000864334800F0EEFD0546FCF791F82D4973
:104E4000486400204860C8642E4800F0E3FD054631
:104E5000FCF786F8274988642B4808650A202B4907
:104E60004881322008810020C86008601E48403018
:104E70001821415E48422549486000211A48803087
:104E8000818600202249088048808880C880088167
:104E900048818881FDF7F6F81048008804B2FBF7D6
:104EA00073FE00BF0D480088001B03D40B48008828
:104EB000001B02E009480088201A0228F2DB7CBDB2
:104EC0000000C84190010020000048423802002044
:104ED000940200200000E03F0000F0418C00002020
:104EE000CDCCCC3DDC050000A000002078020020E5
:104EF0000000A041E00100200000C0400000C0C050
:104F0000CDCC4C3D000048437035000068120020B5
:104F1000FC03002010B558488078002879D1574804
:104F20008078002805D154482038806854490861A9
:104F300005E0514820388068404251490861514895
:104F400000F068FD00B24E4988824E4800F062FDD4
:104F500000B24B49C8820846FFF7F3FA4848806917
:104F6000C0114949C860C868FBF7FAFF46490860A4
:104F70000846C0684249096988427CD143480069B3
:104F800042494969401A3C49203948620846406A0A
:104F9000002802DB0846406A03E037482038406AB0
:104FA000404200143449203948620846406A7D2155
:104FB000090188420EDD30482038406A3449884271
:104FC00008DA2D482038008D401C00B22A492039CB
:104FD000088503E000202849203908852648203824
:104FE0002821415E052946DD072024490871012159
:104FF000214881702148807800280BD17F20C0058E
:1050000000F0F2FC0446FBF79FFF01B22148418209
:105010000FE030E01948807801280AD17F20C005D0
:1050200000F0E2FC0446FBF78FFF404201B2194852
:1050300041823F20000600F0D7FC0446FBF784FFC6
:1050400001B214488182144800F0CEFC0446FBF7FC
:105050007BFF00B20849203908830F4800F0C4FCE8
:105060000446FBF771FF00B2034920394883FCF77F
:1050700063FCFCF7A5FC10BDB00100208C000020F3
:10508000780200200000A040E0010020580100202C
:1050900050460000E0000020CDCCCC3D10B50120F2
:1050A0001C4988720020C87202208877E1208001A4
:1050B00008604B200002486017480881002017490B
:1050C000C8630846806B042108431449886372B69C
:1050D000FEF7D6F962B6FBF757FDFEF713FC104852
:1050E0008078002808D10F4880890A4989894018AA
:1050F00000040D4948610BE009488078012807D178
:105100000448808907498989401A00040649486192
:1051100010BD0000DC030020B80B0000801401402B
:105120008C000020900100205801002010B5654837
:105130008078012857D164480C21415E1E2919DA74
:105140008089401C00B260498881604800F04CFCB6
:105150000446FBF7F9FE00B25A49203908835B4840
:1051600000F042FC0446FBF7EFFE00B2554920393F
:1051700048839EE000205449888102215148817073
:10518000524800F031FC0446FBF7DEFE00B24D4908
:10519000203908834D4800F027FC0446FBF7D4FE75
:1051A00000B24849203948834948807800280AD10C
:1051B0007F20C00500F018FC0446FBF7C5FE01B2D5
:1051C0004448418275E042488078012871D17F20AF
:1051D000C00500F009FC0446FBF7B6FE404201B2F0
:1051E0003C48418265E037488078022861D13648E2
:1051F0000621415E642913DAC088401C00B232499E
:10520000C88034490E20085EC117820A89051143FF
:10521000820531480263416340682F49086048E0D5
:1052200028482038008C401C00B2264920390884C8
:1052300000283EDB002008842348C088642813D15E
:105240002148C088401C00B21F49C8802149122053
:10525000085EC117820A8905114382051E48026350
:10526000416340681C49086016482038406B1A4961
:10527000C86017488078002808D10846C068002810
:1052800011DA0846C0684042C8600CE010488078D7
:10529000012808D11048C068002804DD0E48C06805
:1052A00040420D49C8600C48FFF7B4F80A48FFF7C0
:1052B0008DF8002107488182FCF73EFBFCF780FB5C
:1052C00010BD0000B0010020FC030020CDCCCC3D7F
:1052D0008C000020E0000020E001002010B51D48F7
:1052E000807F002832D01C480A21415E0A2908DA52
:1052F0004089401C00B21849488100201549887730
:1053000027E015480821415E002905DD0089401E7F
:1053100000B2114908811CE0002010494861104981
:105320000860C8600B4988770B49488101200D4906
:105330000871002000F042FB0B49098B48430A49E1
:10534000897EC84000040549486102E00020024906
:10535000488110BD38020020FC03002058010020C5
:10536000E00100208C000020D4020020704770472C
:1053700010B543480079030000F01AFE130B2E25E8
:105380003D402B374370565F677046707049285C0C
:1053900070003B48C078002814D0FFF773FC3948F0
:1053A000007D002806D00120FEF73CFC1020344987
:1053B000087107E0FFF766FC0120FEF733FC0D20C3
:1053C0002F4908714BE0FFF745FA48E0FFF72AF94B
:1053D00045E0FFF715FB42E0FFF754FC0120FEF724
:1053E00021FC03202649087139E0FFF757FE012010
:1053F0002349087133E0FFF7BFF830E0FFF78AFD7B
:105400002DE0FFF793FE2AE0FFF7B4FB27E01D48ED
:10541000007D032807D10020FEF704FCC8201849AE
:10542000C8800A2008711AE0FFF758FFC820144905
:10543000C88014E0FFF7DEF911E01148C0880028A9
:1054400002D000200E49087109E0FFF789FB0E48E1
:105450000088002801D10A49087100E000BF00BFA0
:105460000748C07800280AD107480088002806D1DC
:10547000FEF7D8FBC8200249C8800A20087110BD79
:105480008C000020340300201200002010B5FCF72F
:1054900067F910BD002932D0324A904208D1314A12
:1054A000C032126B10231A432E4BC0331A6358E0DC
:1054B0002C4A2032904208D12A4AC032126B202353
:1054C0001A43284BC0331A634BE0264A40329042BD
:1054D00008D1244AC032126B40231A43214BC033F7
:1054E0001A633EE01F4A603290423AD11D4AC032F0
:1054F000126B80231A431B4BC0331A6331E0194AE5
:10550000904208D1174AC032126B10239A43154BB0
:10551000C0331A6325E0134A2032904208D1114A61
:10552000C032126B20239A430E4BC0331A6318E02B
:105530000C4A4032904208D10A4AC032126B4023D2
:105540009A43084BC0331A630BE0064A603290421C
:1055500007D1044AC032126B80239A43014BC033F7
:105560001A63704700180140FEB506460C4601213B
:105570000420FEF759FE21783046FFF78BFF616863
:105580008900A0680843E168C9000843616909010E
:105590000843216989010843A169C9010843216BB6
:1055A000090208433060E0697060206AF060606A58
:1055B00030613D48476B208D0007000F0190A08DA2
:1055C0000007000F00903848C038864216D10720E7
:1055D00002903946029881430F46606B0743324878
:1055E0004038056AFF2000020540019805430098F5
:1055F000000105432C484038056252E02A48A03893
:10560000864216D1382002903946029881430F46CF
:10561000606BC000074324484038056AEDB201982A
:10562000000205430098000305431F484038056207
:1056300037E01D488038864218D1FF20C1300290E3
:105640003946029881430F46606B80010743164834
:105650004038456AFF200002054001980543009844
:10566000000105431048403845621AE00E48603892
:10567000864216D1072040020290394602988143A3
:105680000F46606B4002074307484038456AEDB259
:105690000198000205430098000305430248403882
:1056A000456201484763FEBDC0180140002181608A
:1056B0004160C1604161016181617D21C900C161B9
:1056C00049100162416200218162C162016341634C
:1056D0000170704710B52148C07802281DDB0020FA
:1056E0001E49C87000BF1E48C088002804D01C484E
:1056F000C088401E1A49C88000BFFCF757FC1948F3
:105700000088002802D00B2015490871FFF730FEF1
:1057100015492220085EFCF7F9FA10488088142801
:1057200006DB00200D498880FDF79AFD00F0C2FAE3
:105730000A48C0887D21C900884202DB0020074951
:10574000C88006488078002806D000200349887069
:105750000649074800F09CF910BD000080000020B9
:105760008C00002012000020A0000020F402002085
:105770000010014010B50B480B490863C805406B89
:1057800049140843490448637320C000FEF7CEFA69
:1057900006490880E7208000FEF7C8FA03494880E0
:1057A00010BD0000837A0000800000401C00002033
:1057B00008B501460948006804221043074A1060F2
:1057C00010464160006902B2684642800348406961
:1057D00002B268460280009808BD000000500140F7
:1057E00070477047F0B587B005460C46394885428A
:1057F00004D101211020FEF717FD06E0364885424E
:1058000003D101212020FEF70FFD0027206802466A
:105810000023019031481946FAF7CCFC039102901D
:10582000781C0246002301900298FAF7C3FC064652
:1058300012E07F1C20680246002301902748194689
:10584000FAF7B8FC03910290781C024600230190FD
:105850000298FAF7AFFC064621488642E9D821486B
:105860008761761EF0B2A860FF2000023040000A77
:105870006860E079012803D104900020059009E0D8
:10588000E079022803D101200490059002E0002075
:10589000049005902079617949000843A179890035
:1058A00008430599C9000843049909010843217A6E
:1058B00049010843617A890108432860A07B4000C0
:1058C000617B0843286260892861207BA86107B05A
:1058D000F0BD000000280140002C014000D8B805B0
:1058E000FFFF0000800000404B21C9010160002142
:1058F000017141718171C171017241724181017304
:1059000041738173704700001FB56846FFF7ECFFD5
:105910004B20400200900021684601714171817165
:10592000C171017369460248FFF75CFF1FBD0000AB
:10593000002801400948806B01210843074988631A
:105940000748C078401C0649C87008468088401C3B
:1059500088800846C088401CC8807047C018014035
:1059600080000020704770477047000000B58FB07E
:1059700001A8FFF79BFE0020029003900490059081
:10598000069007900B48089040100990FF20F530D2
:105990000A9000200B900C900D9001200E9001A910
:1059A0000548FFF7E1FD01210348FFF773FD0FB044
:1059B00000BD000080BB000000180140F8B504469F
:1059C0000849088BFAF7C3FE07462146FAF7A5FCFB
:1059D0000646FAF7FBFE0349897E084185B2284650
:1059E000F8BD000094020020F8B504460849088874
:1059F000FAF7ADFE07462146FAF78FFC0646FAF79E
:105A0000E5FE03498978084105462846F8BD0000AF
:105A100094020020F8B5044608490889FAF797FE71
:105A200007462146FAF779FC0646FAF7CFFE034906
:105A3000897A084105462846F8BD000094020020F6
:105A4000F1B586B00698FAF71DFF04460B4A0C4BD9
:105A5000FAF792FD064600220A4BFAF78DFD0A4A34
:105A60000A4B01910090FAF7EFFD03910290FAF7CB
:105A7000C7FE0490049807B0F0BD0000FA189C8F90
:105A8000C1F9983FC0FFDF40CDCCCCCCCCCC0C4092
:105A9000F3B583B00C460398FEF73FF9064667203E
:105AA000005D00283ED18820005D07283AD1D22031
:105AB000005B0521C901884205DAD220005B401C49
:105AC00081B2D2200153D220005BFF2141318842B4
:105AD00028D1CB2006554220015D2046A830415CEC
