:020000040000FA
:1000000000030020D9000000E7000000E900000024
:1000100000000000000000000000000000000000E0
:10002000000000000000000000000000EB000000E5
:100030000000000000000000ED000000450400008A
:100040005304000055040000570400005904000048
:100050002D0200002F02000071020000310200009A
:100060004F04000033020000B90200002501000027
:10007000F10000007302000051040000270100009D
:10008000F100000075020000F1000000F100000026
:10009000F10000000000000000000000000000006F
:1000A0000000000000000000000000000000000050
:1000B0000000000000000000000000000000000040
:1000C0000448854600F01CF8004800474B05000036
:1000D000C046C04600030020064880F30888064852
:1000E000804706480047FEE7FEE7FEE7FEE7FEE73B
:1000F000FEE700000003002047040000C1000000EC
:10010000064C0125064E05E0E36807CC2B430C3C6A
:1001100098471034B442F7D3FFF7D6FF5C050000D0
:100120006C0500007047704710B50B480B49086319
:10013000C805406BC9130843C9034863012000F098
:10014000D7F8642000F066F90348044908630448BE
:1001500008600020086310BD837A00008000004022
:10016000FF01000010B50121080300F0A7F82D4899
:100170002D490863C805406AC021884301218907C9
:1001800048620846406A402108430906486208461A
:10019000406A0006800F01280CD1D120800000F0B9
:1001A0006DF821498863CD20800000F067F81E4972
:1001B000486326E001208007406A0006800F00287F
:1001C0000CD10D20800100F059F8174988633320C5
:1001D000000100F053F81449486312E00120800741
:1001E000406A0006800F02280BD16920C00000F091
:1001F00045F80D4988636720C00000F03FF80A49C0
:10020000486301208007C06A0121C9020843C9046C
:10021000C862C81404494039C86300200249086311
:1002200010BD0000837A00008000004070477047D6
:100230007047704710B572B60A480B4908630B48FF
:100240000068C912084309490860FFF78BFF642062
:1002500000F0E0F8002004490863012000F086F86F
:1002600062B610BD837A00008000004000040040A8
:100270007047704710B500F089F810BD10B50D4AF1
:100280000B49936ACA14012B0B460B680DD013431C
:100290000B6059231B064B604860C86895231B06FA
:1002A0004B600B6893430B6010BD9343F0E7000075
:1002B0000004004080000040704700000A4A0B4BD9
:1002C0001A63002905D0DA05526B0243DB055A6335
:1002D00006E001229207526B824301239B075A6377
:1002E0000022024B1A637047837A000080000040AE
:1002F00010B50446012C33D11A481B490863C805C0
:10030000806B032109028843A1078863642000F001
:100310008DF8A007806B2102084389058863084691
:10032000806BA0438863642000F080F8A007806B96
:10033000032109028843A1078863642000F076F84E
:10034000A007806B032109020843A107886364208A
:1003500000F06CF8112000F081F8002002490863D9
:1003600010BD0000837A00008000004010B50446F4
:10037000012C07D10021112000F09CF8112000F081
:1003800089F802E0112000F075F810BD112000F08E
:1003900071F8112000F062F81848194948630846BE
:1003A000406A40218843164948620846006A0C2189
:1003B00088431349086200204863124812490863C1
:1003C000FF20C86208460068891588430E49086006
:1003D000C805406BC9138843C903486300200A4914
:1003E000C862086300BFBFF34F8F08480849C86060
:1003F000BFF34F8F00BF00BF00BFFDE7ADDE0000C1
:10040000401C0140837A0000800000400400FA058F
:1004100000ED00E008B50021009103E000BF009965
:10042000491C009100998142F8D308BD08B500210C
:10043000009103E000BF0099491C0091009981429E
:10044000F8D308BD704710B5FFF76EFE10BD7047BA
:10045000704770477047704770470000002805DB01
:10046000C206D20E01219140014A1160704700007E
:1004700080E200E0002809DBC206D20E0121914093
:10048000034A1160BFF34F8FBFF36F8F70470000B7
:1004900080E100E0002809DB00BF00BFC206D20EE9
:1004A00001219140024A116000BF00BF7047000067
:1004B00000E100E010B5002819DB1A4A03231B02F3
:1004C000D21883089B00D2588307DC0EFF23A34079
:1004D0009A438B071B0E8407E40EA3401A43114B6B
:1004E000032424021B198408A4001A5118E00E4AA0
:1004F00003071B0F083B9B089B00D2588307DC0EA9
:10050000FF23A3409A438B071B0E8407E40EA340EE
:100510001A43054B0407240F083CA408A4001A51F1
:1005200010BD000000E100E01CED00E002E008C8A2
:10053000121F08C1002AFAD170477047002001E05D
:1005400001C1121F002AFBD17047FFF773FE03E0C1
:1005500001200004FFF75EFFFAE700006C050000D1
:0C05600000000020000300003C0500002B
:04000005000000C136
:00000001FF
