:020000040000FA
:10000000600600204901000057010000590100006E
:1000100000000000000000000000000000000000E0
:100020000000000000000000000000005B01000074
:1000300000000000000000005D01000073030000EC
:100040007D0300007F0300008103000083030000A4
:1000500033030000350300001903000039030000DA
:100060002F020000F102000085030000870300005A
:100070002D020000FD010000F7010000F901000061
:100080002D0300002F03000061010000610100004A
:1000900037030000890300003B0300003103000028
:1000A000FB01000000000000000000000000000054
:1000B0000000000000000000000000000000000040
:1000C00000F002F800F030F80CA030C8083824180E
:1000D0002D18A246671EAB4654465D46AC4201D180
:1000E00000F022F87E460F3E0FCCB6460126334282
:1000F00000D0FB1AA246AB4633431847C0020000AB
:10010000D00200000023002400250026103A01D36D
:1001100078C1FBD8520700D330C100D50B607047BF
:100120001FB51FBD10B510BD00F033F81146FFF725
:10013000F7FF00F02BF900F04BF803B4FFF7F2FFE4
:1001400003BC00F051F80000094880F30888094812
:10015000804709480047FEE7FEE7FEE7FEE7FEE7C7
:10016000FEE7000005480649064A074B70470000B5
:100170006006002075030000C10000006000002040
:100180006006002060020020600200207047704777
:100190007047754600F024F8AE46050069465346A0
:1001A000C008C000854618B020B5FFF7DBFF60BC73
:1001B00000274908B6460026C0C5C0C5C0C5C0C591
:1001C000C0C5C0C5C0C5C0C5403D49008D467047CB
:1001D00010B50446C046C0462046FFF7AEFF10BD2E
:1001E000004870470000002001491820ABBEFEE720
:1001F0002600020070477047704770477047000044
:1002000000B5084A06489062D013C10348626420D2
:1002100000F0A6F8044810600020906200BD0000C5
:10022000837A000080000040FF01000070477047A3
:1002300070B50D4604460121C80200F07FF86868D9
:10024000002807D0012809D003286068296814D045
:10025000884306E06068296888430FE06068296881
:10026000084360602068296888432060A8680028E7
:100270002069296807D0084306E0084360602068C9
:1002800029680843F1E788432061E8680028A069ED
:10029000296801D0084300E08843A061286900284C
:1002A000E069296801D0084300E08843E06170BD3F
:1002B00041637047016370470021016041608160C4
:1002C000C16001617047000000B585B06846FFF766
:1002D000F3FF6846FFF7F0FF0120019040200090F7
:1002E00069460248FFF7A4FF05B000BD000D0140BC
:1002F0007047000010B572B605480649886200F0E4
:100300000DF8FFF7E1FF642000F02AF862B610BD97
:10031000837A000080000040704700000F200249EF
:100320008002486070470000001701407047704726
:10033000704770477047704770477047074A064BD1
:1003400093620129D16904D08143D1610020906278
:1003500070470143F9E70000837A00008000004005
:1003600008B500210091814202D200BF491CF9E783
:1003700008BD704700B5FFF743FF00BD70477047E9
:10038000704770477047704770470000FFF7B2FF33
:10039000084D094C40212846FFF78CFF2046FFF707
:1003A000DFFF40212846FFF783FF2046FFF7D8FFF5
:1003B000F0E70000000D0140FFFF0F00CC0300003C
:0C03C000000000206006000004010000A6
:04000005000000C136
:00000001FF
