:020000040000FA
:1000000008030020D9000000E7000000E90000001C
:1000100000000000000000000000000000000000E0
:10002000000000000000000000000000EB000000E5
:100030000000000000000000ED000000C10500000D
:10004000D1050000E5050000E7050000E905000016
:10005000790100007B010000250400007D01000003
:10006000CB050000E5030000690400002501000045
:10007000F100000055040000CD050000390100002A
:10008000F100000061040000F1000000F100000038
:10009000F10000000000000000000000000000006F
:1000A0000000000000000000000000000000000050
:1000B0000000000000000000000000000000000040
:1000C0000448854600F01CF800480047DD060000A3
:1000D000C046C04608030020064880F3088806484A
:1000E000804706480047FEE7FEE7FEE7FEE7FEE73B
:1000F000FEE7000008030020C3050000C100000067
:10010000064C0125064E05E0E36807CC2B430C3C6A
:1001100098471034B442F7D3FFF7D6FF1C0700000E
:100120003C0700000348406B032108430149486332
:1001300070470000801401407047000010B50B4864
:100140000B490863C805406BC9130843C9034863DA
:10015000012000F08BF9642000F01AFA03480449EA
:100160000863044808600020086310BD837A00001B
:1001700080000040FF010000704770477047F0B5F5
:100180000B46002200240025002100BF65E0012667
:10019000964034461E6826403546A5425CD11E79FD
:1001A000002E0CD101680126964031430160416860
:1001B000012696400F46B743394641602DE01E792F
:1001C000012E0BD1016896400F46B74339460160B6
:1001D000416801269640314341601EE01E79022E9F
:1001E0000ED10168012696400F46B743394601609B
:1001F0004168012696400F46B743394641600CE0FE
:100200001E79032E09D10168012696403143016011
:10021000416801269640314341605E79012E04D148
:10022000016996403143016109E05E79002E06D1F3
:100230000169012696400F46B7433946016181693D
:100240009E68012E02D19640314304E0012696407B
:100250000F46B74339468161521C102A97D3F0BD2F
:1002600010B50446002C02D001201E4908701D481C
:100270000078002825D00121C9021B4800F036F87B
:10028000002806D001210903174800F02FF80028A4
:1002900017D10A2000F07CF90020124908700121D2
:1002A000C902114800F022F8002801D1012010BD38
:1002B000012109030C4800F019F8002810D1022090
:1002C000F5E70121C902084800F010F8012807D11C
:1002D0000103054800F00AF8012801D1014908701E
:1002E0000020E4E7000000208020014002460020BA
:1002F00093680B40002B01D0012000E000207047E4
:1003000002460020D3680B40002B01D0012000E002
:100310000020704730B504460D460022294620468D
:1003200000F010F830BD30B504460D4601222946D4
:10033000204600F007F830BD0021016001714171D5
:1003400081607047002A03D0C3680B43C36002E09A
:10035000C3688B43C36070470EB56846FFF7ECFF78
:100360006846FFF7E9FF0021684601710120C002DD
:1003700000906846417169461948FFF700FF6846DA
:10038000FFF7DAFF002168460171012000030090A9
:100390006846417169461248FFF7F1FE6846FFF76B
:1003A000CBFF012168460171402000900021684682
:1003B000417169460A488038FFF7E1FE6846FFF759
:1003C000BBFF012168460171802000900021684632
:1003D0004171694602488038FFF7D1FE0EBD00002A
:1003E000802001407047000010B572B60A480B49E2
:1003F00008630B480068C912084309490860FFF701
:10040000ABFF642000F0C4F8002004490863012019
:1004100000F06AF862B610BD837A000080000040E8
:1004200000040040704770B504460D46294620463A
:10043000FFF766FF0646002E05D029462046FFF747
:1004400069FF002070BD29462046FFF76CFF0120A0
:10045000F8E7000003200149C8637047001C014011
:1004600010B500F051F810BD7047000010B50446FB
:10047000012C33D11A481B490863C805806B03213E
:1004800009028843A1078863642000F08DF8A00763
:10049000806B21020843890588630846806BA0436E
:1004A0008863642000F080F8A007806B03210902B4
:1004B0008843A1078863642000F076F8A007806B6A
:1004C000032109020843A1078863642000F06CF847
:1004D000112000F08BF800200249086310BD0000D5
:1004E000837A00008000004010B50446012C07D13B
:1004F0000021112000F0A6F8112000F093F802E08E
:10050000112000F07FF810BD112000F07BF81120C1
:1005100000F06CF81848194948630846406A4021C1
:100520008843164948620846006A0C2188431349EB
:10053000086200204863124812490863FF20C8621D
:1005400008460068891588430E490860C805406B55
:10055000C9138843C903486300200A49C862086375
:1005600000BFBFF34F8F08480849C860BFF34F8FE3
:1005700000BF00BF00BFFDE7ADDE0000401C014032
:10058000837A0000800000400400FA0500ED00E0DE
:1005900008B50021009103E000BF0099491C0091BB
:1005A00000998142F8D308BD08B50021009103E00D
:1005B00000BF0099491C009100998142F8D308BD01
:1005C000704710B5FFF7BAFD10BD704770470000C7
:1005D0000348806B0121084301498863704700008C
:1005E000C01801407047704770470000002805DBC5
:1005F000C206D20E01219140014A116070470000ED
:1006000080E200E0002809DBC206D20E0121914001
:10061000034A1160BFF34F8FBFF36F8F7047000025
:1006200080E100E0002809DB00BF00BFC206D20E57
:1006300001219140024A116000BF00BF70470000D5
:1006400000E100E010B5002819DB1A4A03231B0261
:10065000D21883089B00D2588307DC0EFF23A340E7
:100660009A438B071B0E8407E40EA3401A43114BD9
:10067000032424021B198408A4001A5118E00E4A0E
:1006800003071B0F083B9B089B00D2588307DC0E17
:10069000FF23A3409A438B071B0E8407E40EA3405D
:1006A0001A43054B0407240F083CA408A4001A5160
:1006B00010BD000000E100E01CED00E002E008C811
:1006C000121F08C1002AFAD170477047002001E0CC
:1006D00001C1121F002AFBD1704700000024FFF760
:1006E00083FE16E00020FFF7BBFDC4B2012C02D050
:1006F000022C0AD104E040210648FFF794FE04E0F2
:1007000080210448FFF78FFE00BF00BF0248FFF7BB
:100710003FFFE7E700200140FFFF00003C0700002B
:100720000000002004000000BC060000400700009C
:100730000400002004030000CC06000001000000BB
:04000005000000C136
:00000001FF
