:020000040000FA
:1000000078150020D9000000E7000000E90000009A
:1000100000000000000000000000000000000000E0
:10002000000000000000000000000000EB000000E5
:100030000000000000000000ED0000009D470000EF
:100040002D4D00005D4D00005F4D0000614D000032
:10005000911A0000931A0000FD280000812400007E
:10006000D94B000081270000A1360000A508000040
:10007000F1000000F1000000DB4B0000C91000009F
:10008000F100000079310000F1000000F1000000F3
:10009000F10000000000000000000000000000006F
:1000A0000000000000000000000000000000000050
:1000B0000000000000000000000000000000000040
:1000C0000448854600F0DCFB004800474D52000024
:1000D000C046C04678150020064880F308880648C8
:1000E000804706480047FEE7FEE7FEE7FEE7FEE73B
:1000F000FEE70000781500209D480000C1000000C8
:1001000030B50B46014600202022012409E00D46AF
:10011000D5409D4205D31D469540491B2546954037
:1001200040191546521E002DF1DC30BD70B500247B
:100130002546002801DA01244042002901DA012580
:100140004942FFF7DDFFAC4200D04042002C00D016
:10015000494270BDF0B51FB40646002082B0054686
:100160004024019100901BE0019922460F46304641
:1001700000F0D4FA049A059B801A994110D31046D6
:100180001946224600F079F8361A8F410197224627
:1001900001200021009F00F070F838184D410090B8
:1001A0002046641E0028DFDC019B00982946324669
:1001B00007B0F0BDF8B500242546002904DA0E4644
:1001C000012400214042B141002B04DA1E460023E5
:1001D00052420125B341FFF7BDFF8C4617461E462C
:1001E000AC4203D0002540428D41AC46002C02D0E9
:1001F000002657429E4161463A46334601B0F0BD63
:10020000F0B51FB486B000200090019002900698CF
:10021000069980B204900798090C02040014114357
:1002200007900027089D099806913E463C4603909A
:100230000398A9B20204000C039004982D0C1543F6
:1002400048430021224600F018F8C71971411034C4
:100250000E46402CECDB3846029A00F00EF8009A6D
:10026000019B801800905941029801911030029032
:100270004028CCDB00980BB0F0BD10B5202A04DB81
:100280000146203A9140002010BD914020239C1A45
:100290000346E3401943904010BD10B5202A06DB09
:1002A000CB170846203A1041C1170B4306E00B4616
:1002B0001341D0402024A21A91400843194610BD92
:1002C00003460B439B0703D009E008C9121F08C06F
:1002D000042AFAD203E00B780370401C491C521E1A
:1002E000F9D27047D2B201E00270401C491EFBD225
:1002F00070470022F6E710B513460A460446194631
:10030000FFF7F0FF204610BD03460A780270401C3C
:10031000491C002AF9D118467047024670B54A4078
:10032000D30FDB0740002DD04A002AD0010E140E57
:10033000000212020919400A520A8418E501044613
:100340005443000A120A2E045043A4194219200CE7
:10035000C543AA18120C0125AD03521C52191204F0
:100360007F39240400D0521C104301D44000491EA0
:10037000C2B20C06C0092018401C4008802A02D0D6
:1003800003E0002070BD40084000002900DA002092
:10039000184370BD70B502464A40D50F40004A0070
:1003A000ED0740085208002814D0002A12D0C40DCE
:1003B000D30D41020120C0055202490A520AE41A33
:1003C000091812187D34914201D3641C00E04900E1
:1003D000002C01DA002070BD0023914201D3891A5C
:1003E0000343400849000028F7D100290AD0914270
:1003F00002D10121C90705E0914201D2012101E0AA
:100400000121C943E005C018401900F098F970BDFA
:10041000F0B51FB488B00B99099800244840099999
:10042000C00F490049080991C0070B990090490085
:1004300049080B9109990898A64608431CD00B99C6
:100440000A98084318D0099801244000420D48003A
:10045000410D099824050003000B204309900B98D7
:100460000003000B20430B9050181C494018002239
:1004700001901446104605E0002001460DB0F0BD85
:10048000032801DA034600E003239C46C11A0AAEA2
:100490000AE05F0008ADED5B4F00F75B7D4300278E
:1004A000AA187C41491C5B1E6145F2DD410004AB8A
:1004B0005A522104120C0A43240C401C0828DFDB8A
:1004C000019802900099704601910090059B049A52
:1004D0000799069800F081F9D0E700000DFCFFFFB6
:1004E000F0B50C465C4085B0E40FE40703944C0083
:1004F00000266408590094464908024602962243A1
:1005000021D062460A431ED06200570D4A000E03F6
:100510002303550D012402462C492405781B1B0B8F
:10052000360B401823432643614600901C46501A60
:10053000B44103D30098401C009002E09218009848
:100540005B41002803DA0020014605B0F0BD002021
:10055000012109050746864611E064461D46141B25
:10056000B54106D36546521BB341744607430C435D
:10057000A646CD0740084908284392185B41054626
:100580000D43EAD11046184313D060461946504037
:100590007140084306D06046101AB34106D20122CA
:1005A000002306E000220123DB0702E00122D24300
:1005B0005310009874460105381C6141029C039D4C
:1005C0000019694100F0FCF8BFE70000FD030000DE
:1005D000C217C10F504010B54018CA07962300211A
:1005E00000F0B5F810BD10B500229623114600F0BA
:1005F000AEF810BD0EB505490291002100910A46E2
:100600000B46019100F0E9F803B000BD330400008F
:100610003EB5CA17CB0F002450405140C01861416D
:10062000DA07054B0293019200942246234600F01C
:10063000D4F803B030BD000033040000C20F410005
:1006400040020123400ADB05D207090EC0187F29AA
:1006500001DA00207047962903DC9623591AC84016
:1006600001E096398840002AF4D0404270470000EB
:1006700070B5CD0F4A0009030123090B1B0519436F
:100680000B4BED070024520D9A4201DA002070BD99
:10069000074B34339A4203DC9A1A00F03FF802E029
:1006A0000449511888402C43F1D0404270BD0000ED
:1006B000FF030000CDFBFFFF4A0009030123090BE4
:1006C0001B051943094B10B5520D9A4201DA00205F
:1006D00010BD064B34339A4203DC9A1A00F01EF820
:1006E00010BD03495118884010BD0000FF030000F1
:1006F000CDFBFFFFC20FD207400040080BD0C10D59
:100700000723DB01C91840020905400A1143C2084A
:1007100040071143704700200146704710B5202A5A
:1007200004DB0846203AD040002110BD0B46D340E0
:10073000D0402024A21A91400843194610BD002938
:1007400004DA401C490001D140084000704770B4F1
:100750000024050C05D11024000402D1002921D069
:100760001124050E01D100020834050F01D100014A
:10077000241D850F01D18000A41C002801DB40004E
:10078000641C002908D020252E1B0D46F540A140F1
:1007900000D001212943084301061B1B000ADB1D71
:1007A00002D5002070BC7047DB051818801800299E
:1007B000F8DA401C4900F5D170BC40084000704791
:1007C00010B5002B08DA0024401C614192185B41EF
:1007D0001A4301D14008400010BDF0B51FB482B0EB
:1007E00005460C0003D0084604F01FFC02E004F0AC
:1007F0001CFC20300246009021462846FFF73DFDB4
:10080000049B059A04460F4618431143084314D02D
:10081000184610431BD0009840210A1A1846059923
:10082000FFF77CFF05460E46009A05990498FFF7EE
:1008300024FD084305D0012004E02046394607B0D6
:10084000F0BD0020C11705430E432C4337430099E8
:100850000E986305401A7905E40A00220C43FD0A4C
:100860000A3002D500200146E9E701051019694167
:100870000C9C0D9D00196941FFF7A2FFDFE7000006
:10088000064C0125064E05E0E36807CC2B430C3CE3
:1008900098471034B442F7D3FFF716FC44550000D4
:1008A0006455000010B52A48406B032108432849CD
:1008B000486328480088401C2649088001202649B2
:1008C000887023488038008A24494884204880382A
:1008D000808A234908871F4801F020F91D480079C4
:1008E00007280FD11F4A1D4914310846083802F065
:1008F000DFFD1D488069000C1C4948801C4A1748D0
:1009000000F0ECFD1B48406810210840002805D18C
:100910001848406820210840002809D03020154997
:1009200048601548008802218843801C12490880CD
:100930000D484069000C00B2104908800A4800695F
:10094000000C00B248800622012002F043FE10BDD8
:1009500080140140840000207800002098000020CE
:100960008801002098040020500100200804002085
:1009700010000020401C014016000020060000204E
:1009800000B589B0684600F029F900216846418029
:1009900001810A214181002181810121818200217F
:1009A0004182012101806946074800F027F8064886
:1009B0008030406BFF21084303498031486300F0D9
:1009C000CFF809B000BD00000014014070B5034627
:1009D0001C4650344D10AD006059CD072E0FFF2539
:1009E000B5400646AE433046CD072E0F1546B540FE
:1009F00028434D10AD00605170BD000070B5044635
:100A00000D460121084602F0E1FF534853490863AF
:100A1000C805406A298CC90008430121890748623A
:100A2000A8880001C86300204C4908632988B020C9
:100A300001516888298B4900084386B2B8200651C5
:100A4000A88AE98A09010843297A09020843A97C8E
:100A500009030843A9798903084386B2BC200651DB
:100A60006889A98909020843A067E889298A0902D7
:100A70000843E067698BC4200151A98B882001518C
:100A8000E98B8C2001516888002834D13120000185
:100A900002F038FD010190200151C520800002F0D4
:100AA00031FD0101942001516320C00002F02AFDB4
:100AB00098210851C720800002F024FD9C21085194
:100AC0001920400102F01EFD0101A0200151C920A2
:100AD000800002F017FD0101A42001516520C00033
:100AE00002F010FDA8210851CB20800002F00AFD81
:100AF000AC2108512FE03120000102F003FD9021CC
:100B00000851C520800002F0FDFC942108516320AB
:100B1000C00002F0F7FC98210851C720800002F0C5
:100B2000F1FC9C2108511920400102F0EBFCA021AE
:100B30000851C920800002F0E5FCA421085165207D
:100B4000C00002F0DFFCA8210851CB20800002F099
:100B5000D9FCAC21085170BD837A000080000040B0
:100B600010B5022200211A48FFF730FF012211467A
:100B70001748FFF72BFF022211461548FFF726FF03
:100B8000012203211248FFF721FF0C220421104803
:100B9000FFF71CFF092205210D48FFF717FF0C2264
:100BA00006210B48FFF712FF112207210848FFF723
:100BB0000DFF102208210648FFF708FF0F22092128
:100BC0000348FFF703FF03480349088010BD0000F6
:100BD0000014014052F4FFFF201C0140002101805D
:100BE0004180C180018141818181C1810182418235
:100BF0008182C18201838183C183018481807047A6
:100C00001FB504462146684602F0EAFD01990098A6
:100C10000391029069460820085E1849C969484353
:100C2000C01300B2208069460A20085E1349C969D2
:100C30004843C01300B26080208861884018404259
:100C400000B2A0800E48007C00280AD10220205E5D
:100C50000421615E401A0B494843C01301B261820E
:100C600009E00420205E0221615E401A05494843E4
:100C7000C01301B26182208820821FBD5001002074
:100C800084000020E74900000146044A12884A43D4
:100C9000024B9B781A41104670470000CC0200209E
:100CA0000146044A12894A43024B9B7A1A41104674
:100CB00070470000CC02002000B506487D21806B03
:100CC00049010014081A04490861084600F0ECFFC5
:100CD00000BD0000200000206012002010B5044676
:100CE0002A493620085EFFF7DBFF400328490861E8
:100CF0002648818C4820005B08180004254988613B
:100D00000846806908610846806923490860208C8C
:100D1000000322494843401221490862214900202A
:100D2000085E0A2148431E4948620846806A00B2AC
:100D30001D49888200211C48C182808A01041A480A
:100D4000C16700218C30C1608C38C08A000417490B
:100D5000C8600020164908801348808A000415499D
:100D6000C8601148007D000400B2134908800020CB
:100D700012490880124908800B48808A114908806E
:100D80000948808A1049088010BD00000405002031
:100D90000C120020500100203C00002077030000CE
:100DA000005001400053000098000020281200204D
:100DB00034000020441200203600002026000020CD
:100DC0002A0000202C00002028000020F0B587B069
:100DD00004460D46002060800021A180E180E08172
:100DE00021826182A061A083A082E083A084B620DA
:100DF000684301B2482001530020E0636421402091
:100E0000015300202080608660851E490869FFF735
:100E100015FC642148430746FFF7DAFB00901948A8
:100E2000016A0098FFF7B6FA012189070190FFF7E0
:100E3000B1FA0646FFF75EFC134A144B0391029089
:100E4000FFF74EFB05910490FFF712FC01B220461C
:100E5000403081800B490869FFF7F0FB642148436B
:100E60000590FFF7B5FB07460648016A3846FFF7CD
:100E700091FA0646FFF7E2FB01B24620015307B0A4
:100E8000F0BD0000005300004AD8124DFB2109407C
:100E9000FEB504460D4616461F466580A680E780CF
:100EA0000220205E002801DA002060800421615EBB
:100EB000002901DA0021A1800621615E002901DA02
:100EC0000021E1800221615E0422A25E89180622CF
:100ED000A25E8818A0615849A06948430014A08305
:100EE0006088A18B401A00B2E081A088A18B401AD3
:100EF00001B22182E088A18B401A01B26182E089AF
:100F0000A0821021615E1222A25E881A4B494843DA
:100F1000C01301B2E1821420205E40431622A25E7B
:100F200052438018464908630846406B00B2E0838C
:100F30001E20205E46210A5F50434000000C2084A2
:100F4000A08C00B220851421615E1620205E00F086
:100F5000C7F9A0841E20205E7D22D2005043442287
:100F6000135F5843C0130090364881690098FFF71B
:100F7000C7F800B202900298FFF72AFB009003F036
:100F800045FF00B22087A08C218D401A00B26085F9
:100F90001E20205E502801DA002060852A20205E75
:100FA0002949884205DD608D01210904081A00B233
:100FB00060852A20205E24494942884205DA608DF6
:100FC00001210904401800B260852A21615EE06AAF
:100FD0004018E062608E401C00B260863220205EC5
:100FE000102806DBE06A001100B220860020E062D3
:100FF00060863021615E20463C3004F01EF9A086F8
:101000003420205E114989894843001401900198D9
:10101000FFF7DEFA009003F0F9FE00B2E08636201A
:10102000205E002802DB208F608703E0208F404293
:1010300000B26087FEBD000055550000E749000082
:1010400000500140D4520000FF7F00000053000018
:1010500072B6194A10201221105E515E4043494376
:10106000411816480163406B62B601041448426897
:101070008B1A1B129A18131442608268891A49133A
:101080008918816009145A1A1304C2689B1A1B122A
:101090009A18C26010140B4A2023D35E8B4208DDDD
:1010A000002800DA40422221515E884201DA012004
:1010B00000E0002090777047980000200050014029
:1010C00068000020300200201CB503201A49486047
:1010D000084640680221084000282BD000210091DA
:1010E000019111E00120800780690121C9030840B6
:1010F000002804D068460078401CC1B200916846C0
:101100000079401CC1B20191684600790528E9DBED
:101110006846007803280CDD002002F00FF830202C
:10112000064948600648008802218843801C04491B
:10113000088000BF1CBD0000000C0140401C0140A5
:101140001600002010B504463420015D802002F016
:101150003DFC217D402002F039FC494849490863A3
:10116000E0698000E16B09010843A16909020843B5
:10117000A16B090308432169C901084301218907BB
:10118000C96A084301218907C8620846406A217B71
:101190000843012189074862207D80013421095DCF
:1011A000C901084301218907496B084301218907C7
:1011B00048630020334908634020005D400020213F
:1011C000095D084330490860207900280FD1492083
:1011D000005D002803D12920005D002803D00820ED
:1011E000294988600CE000202749886008E02068D1
:1011F00000012179C9000843A16808432249886099
:10120000606CC0014821095D890108434921095DDD
:1012100049010843E16C09010843616AC9000843B8
:101220002821095D890008432921095D49000843F7
:10123000E16A08431449C8605020005DC001512193
:10124000095D890108435221095D49010843532181
:10125000095D090108433021095DC90008433121B6
:10126000095D890008433221095D490008433321A3
:10127000095D0843044908610320486010BD00006F
:10128000837A000080000040000C014010B5044645
:1012900054212046FFF72DF810BD00B595B06846E3
:1012A000FFF7F4FF00216846017502200790012036
:1012B000069008A8417201700121017502200F906B
:1012C00000200E9010A8417201700F2000900120A4
:1012D000029068460171FFF735FF15B000BD0000B0
:1012E000F8B54C1C6410A646CA030CB20092A44682
:1012F000684A694B4C42002867DB451C6F10C503E8
:1013000006B2002931DB88421ADB002811D0009890
:10131000C01910625662906AC1094900CA18528801
:10132000595A4006521A400E42434032D00908181A
:10133000ADE0002902D001208003F8BD0020F8BDF7
:1013400070462818106260465062906AC1094900D0
:10135000CA185288595A4006521A400E4243403227
:10136000D00908180121890390E0A04216DB00286B
:1013700012D0E003C01910625662906AC109490098
:10138000CA185288595A4006521A400E42434032F7
:10139000D009081840427AE04048F8BD601C40106F
:1013A0002818106220B25062906AC1094900CA1818
:1013B0005288595A4006521A400E42434032D009D0
:1013C000081801218903401A61E001254042ED031C
:1013D00000292EDB884215DB441C00996410091992
:1013E000116200B25062906AC1094900CA1852885D
:1013F000595A4006521A400E42434032D00908184A
:10140000281A44E0C1037046081810626046506212
:10141000906AC1094900CA185288595A4006521A9E
:10142000400E42434032D009081801218903401878
:101430002DE0A04215DB411CE40349106118116244
:1014400000B25062906AC1094900CA185288595ABC
:101450004006521A400E42434032D0090818401B41
:1014600015E0C103601C40100818106220B25062E1
:10147000906AC1094900CA185288595A4006521A3E
:10148000400E42434032D00908180449081A00B2FD
:10149000F8BD0000005001402453000000C0FFFFD1
:1014A00010B50B480B490863C805406BC9130843C6
:1014B000C9034863012002F0BBFA642002F060FB1C
:1014C000034804490863044808600020086310BD0D
:1014D000837A000080000040FF01000010B5664BD9
:1014E0005B88002B70DD644B5B880124E403A3421E
:1014F0006ADA0B78002B05D101230B7000234B60B7
:101500008B60CB600F24E4434B68A3420CD20023D2
:10151000C35E4C68002B02DB0023C35E02E00023A5
:10152000C35E5B42E3184B600F24E4438B68A34225
:101530000CD20223C35E8C68002B02DB0223C35E45
:1015400002E00223C35E5B42E3188B600F24E44396
:10155000CB68A3420CD20423C35ECC68002B02DB11
:101560000423C35E02E00423C35E5B42E318CB6046
:101570000F24E4434B68A34201D9234605E04B689E
:101580000F2B01D20F2300E04B684B600F24E44384
:101590008B68A34201D9234605E08B680F2B01D24B
:1015A0000F2300E08B688B600F24E443CB68A342D9
:1015B00001D9234605E0CB680F2B01D20F2300E0B1
:1015C000CB68CB6008E0FFE700230B704B680B6132
:1015D0008B684B61CB688B610023C35E002B02DB01
:1015E0000023C35E02E00023C35E5B420024145F5D
:1015F000A3420BDD0023C35E002B02DB0023C35E8E
:1016000002E00023C35E5B421BB213800223C35E71
:10161000002B02DB0223C35E02E00223C35E5B42B7
:101620000224145FA3420BDD0223C35E002B02DB06
:101630000223C35E02E00223C35E5B421BB25380FF
:101640000423C35E002B02DB0423C35E02E00423F9
:10165000C35E5B420424145FA3420BDD0423C35E1C
:10166000002B02DB0423C35E02E00423C35E5B4263
:101670001BB2938010BD0000080400201F481021F9
:10168000415E1422825E914217DD1021415E1422D8
:10169000825E881A1A491A228A5E904207DD17482C
:1016A000008A498B401A01B21448018205E01348B0
:1016B000008A401E01B21148018210481021415E8B
:1016C0001422825E914217DC1421415E1022825E58
:1016D000881A0B4918228A5E904207DD0748008A63
:1016E000098B401801B20548018205E00348008AD1
:1016F000401C01B20148018270470000D800002060
:10170000880100201F480E21415E1222825E914214
:1017100017DD0E21415E1222825E881A1A491A22B2
:101720008A5E904207DD1748C089498B401A01B292
:101730001448C18105E01348C089401E01B2114818
:10174000C18110480E21415E1222825E914217DC57
:101750001221415E0E22825E881A0B4918228A5E8F
:10176000904207DD0748C089098B401801B205483F
:10177000C18105E00348C089401C01B20148C18114
:1017800070470000D80000208801002010B50446F2
:101790004E20015F0C20205E091A8020015150204C
:1017A000015F0E22A25E891AB420025F89189C2074
:1017B0000151802000590121C902884201DD0846FB
:1017C00008E0802000591449884201DA084601E007
:1017D00080200059802108519C200059090188422D
:1017E00001DD084608E09C2000590B49884201DAD7
:1017F000084601E09C2000599C2108512046703089
:1018000000F0A6F8A08220468C3000F0A1F8E0821B
:1018100001F066FB10BD000000F8FFFF30B585B099
:10182000002472B600204449C863C86304204249BA
:10183000403988634048806B042108433E498863EF
:10184000002500E06D1C3D488542FBD3FF2003309E
:101850003949403908613A484861002000900190B8
:1018600004900390002428E0364833494031086052
:1018700000BF3148406BC007C00F0028F9D02E4888
:10188000406B032108432C4948632B4980390022CF
:101890008A5E00988018009004228A5E0198801861
:1018A000019008228A5E0298801802900C228A5EBB
:1018B000039880180390601C84B201204002844287
:1018C000D2DBFFF75DF8FFF74BF962B600984012E4
:1018D00001B21D48C1800198401201B21A4801812D
:1018E0000621415E002903DB01460620085E03E075
:1018F00015480621415E484211496039884210DC92
:1019000011480821415E002903DB01460820085EDA
:1019100003E00D480821415E484209496039884288
:1019200007DD0A480088FF21013188434018074934
:10193000088005B030BD000080140140FFFF0700A3
:101940000C0E0000A55A0000D80000201600002050
:1019500010B501464C690B691B1B0C8963431A4681
:101960004C890B69634314011A19CB689B18CB602F
:101970000C68CB68A34202DD0B68CB6005E04C68C5
:10198000CB68A34201DA4B68CB60CB6818140B69B3
:101990004B6110BD10B50121080302F017F827486C
:1019A00027490863C805406AC02188430121890787
:1019B00048620846406A40210843090648620846D2
:1019C000406A0006800F01280CD1D120800001F070
:1019D00099FD1B498863CD20800001F093FD1849D3
:1019E000486326E001208007406A0006800F002837
:1019F0000CD10D20800101F085FD11498863332051
:101A0000000101F07FFD0E49486312E001208007CC
:101A1000406A0006800F02280BD16920C00001F047
:101A200071FD074988636720C00001F06BFD044920
:101A30004863532002494039C86310BD837A0000CF
:101A40008000004000B50121402001F0D9FF00BD19
:101A500010B50B49096A4143C8130A490204486A90
:101A6000121A521010180414486201202146000670
:101A7000FEF75CFB044948830448C486204610BD39
:101A800050010020200000200C12002098000020AF
:101A9000704770471C491D48C1621D4801891B4899
:101AA000103801811A484189184810384181194974
:101AB000703841674842154980390867002113484A
:101AC0008038C1671248818810480C300181104865
:101AD000C1880E480C3041810E49416049420C38A2
:101AE000C16000210C30C1600B490C380163012139
:101AF000203801737D20400104498039C8860021C7
:101B00000248403801837047C2520000180100208B
:101B100050010020000090E8C12A0000F8B50546F9
:101B2000584C2046FFF76CF82879C01E030003F0DC
:101B3000C3FA103B3A37A53CA58EA5A5A53EA5A5A1
:101B40003D099CA55048808B504908805048007C36
:101B5000002808D14C482030008848804A4820306E
:101B60008088888008E0484820300088474988807D
:101B700045482030808848804648406A40210840D7
:101B800000280CD141480023C35E0222825E04215A
:101B9000415E4148FFF77CF93F48FFF79FF86EE050
:101BA00001F006FA00BF00BF00BF00BF00BF01F098
:101BB00037FA3A488069000C39490880084600889D
:101BC00000B202F0F1FF694600900988A1836946DE
:101BD0004988E1831221615E1C20205E4143CA13C3
:101BE0001020205E1E23E35E5843C013101A00B27B
:101BF000A0811020205E1C21615E4843C213122088
:101C0000205E1E23E35E5843C013101801B2E18129
:101C1000FFF752F81B49803188862046FFF7B6FD52
:101C20001820205E1F494843001300B220831A2168
:101C3000615E1C484143081301B26183204601F0F4
:101C400031FDB0210859804701F0D4FA17E0FFF7C1
:101C5000FFF9002060850021A185E185208661864D
:101C6000A186B0210859804709E000206085002145
:101C7000A185E185B0210859804700E000BF00BF81
:101C8000F8BD000098000020001401400000002072
:101C900084000020401C0140040500205001002069
:101CA0001A000020E749000030B501884389046923
:101CB0000A04C56881886343EB180904C360934232
:101CC00001DD134602E08B4200DA0B46C360008957
:101CD000444320011818904201DD104602E088427A
:101CE00000DA0846001430BD10B513480021415EEB
:101CF000052905DA0088401C00B20F49088002E07F
:101D000001200D4908800C490020085E030003F003
:101D1000D3F9060F040B0C0D0E0F08492220085EA4
:101D2000074900F0D9F804E003E002E001E000E038
:101D300000BF00BF10BD0000180000209800002068
:101D40004C04002010B53C4803F04AF80446FEF766
:101D50009BFF00B23949088000203949088048803B
:101D60008880384908804880374803F065F800B219
:101D700032494880354803F05FF800B22F49888027
:101D8000002033490880334803F02AF80446FEF760
:101D90007BFF00B2294948812F4803F037F80446F9
:101DA000FEF77EFF2549C86000202C490880488046
:101DB000C880FF20800503F013F80446FEF764FF97
:101DC00000B21E490882264803F020F80446FEF7B8
:101DD00067FF1A494861184803F018F80446FEF7EF
:101DE0005FFF164988611F4802F0FAFF0446FEF7BC
:101DF0004BFF00B211490884144803F007F8044669
:101E0000FEF74EFF0D49C86100204884164908803E
:101E10001649087008614861886148804860886098
:101E2000C860134908804880888012490880124998
:101E300008804880C88010BD000020412404002094
:101E4000980000204C0400200000F0410000A04158
:101E5000560400209A99993E0000484260040020F0
:101E600000009643CDCC4C3E7E04002008040020A8
:101E700010000020740400208804002010B5002009
:101E80000C4908800C4988800C4988800C4988805E
:101E900008810C4988800C4988800C4802F0CCFFEE
:101EA00000B20B49C8800B4802F0C6FF00B20849D7
:101EB000088110BD16000020560400206004002098
:101EC0006A0400204C040020740400200000AC418F
:101ED000240400200000A44170B505460C461C49AE
:101EE0000220085EA84204DC2088401C00B220804A
:101EF0000CE017490420085EA84204DD6088401CFD
:101F000000B2608002E00020208060800020205E1F
:101F1000C8280BDB002001F011F9002020800D48BB
:101F2000008804218843001D0A4908800220205EA1
:101F3000C8280BDB002001F001F900206080054873
:101F400000880821884308300249088070BD0000DD
:101F50002404002016000020002801DA404200B2CC
:101F6000002901DA494209B2002A01DA524212B2CA
:101F7000884202DB904200DB0123814202DB914276
:101F800000DB0223824202DB8A4200DB0323184685
:101F900070470246002001235B031146814089B24D
:101FA000994203D8401C00B20D28F6DB70470000B0
:101FB00010B52820084988810A20C8817D200001A9
:101FC0000880401048800548C8620548086300F052
:101FD00009F8FFF75FFD10BD50010020D45200004A
:101FE00000530000F0B5FF4E0A20F56A87B0285E66
:101FF000346BFEF7EDFA0746FB492069FEF78DF9D1
:102000006169FEF7C7F9A169FEF7C4F93946FEF721
:10201000C1F9FEF713FBF0610020205EFEF7D8FA4D
:10202000F24F009039462069FEF777F9E169FEF733
:10203000B1F90099FEF7AEF9FEF700FB306201201E
:1020400000076968FEF772F870620020205EFEF7F4
:10205000BFFA009039462069FEF75FF9216AFEF762
:1020600099F90099FEF796F9FEF7E8FAB062A289AD
:102070006E6864204243F117F00849070143D31703
:102080007007FEF797F80905000B0843D84E642146
:10209000F0826868FEF74AF80004A189FEF746F866
:1020A00030832A691921D317009317464904E86839
:1020B00002F0D2FF3A46009BFEF77CF8A28900238B
:1020C000FEF778F80121C903081A3060C948039067
:1020D00068692A69C117C60C4903D3173143400305
:1020E000FEF768F880B20290002664216868FEF767
:1020F0001DF80746C0170190A08900903846324667
:102100000199FEF7BAF8012252030023FEF752F8B4
:102110000023009AFEF74EF87D218901884202DAF9
:10212000761C36B2EAE7C1170023039AFEF768F877
:102130000023029AFEF764F8CA00410FAC4811432D
:1021400041601E3E012146738902818200262F696B
:102150000020FB170093205EA74902F07DFF324666
:10216000FEF78BF83A46009BFEF724F80A27EF5F4C
:10217000FB173A46FEF71EF8A2890023FEF71AF86D
:102180007D21C901884202DA761C36B2DFE79B491D
:1021900002F062FF0903000D084395490E3E886076
:1021A000084686730020205E954AA9695043FDF7D2
:1021B000A7FF8C4988620020205E924948430214A0
:1021C0000A200092285E9049484306147D21A08988
:1021D000C900FDF795FF8D49F317888381480021D9
:1021E000008832460593FEF70BF82A69D317FEF7ED
:1021F00007F8FF23009A87335A430092D2170192BF
:10220000019B009AFDF7D6FF764980B28880049042
:10221000A089FEF7EFF9039102907249049849886A
:1022200002F032FFFEF7F4F90022794BFEF7F0F8E6
:10223000039B029AFEF754F9FEF73EFA69493246CB
:10224000C880084600880021059BFDF7D9FF6A6910
:10225000D317FDF7D5FF019B009AFDF7ABFF87B2BF
:1022600060480781A089FEF7C5F906465D480091E0
:102270004188384602F008FFFEF7CAF90022644B95
:10228000FEF7C6F83246009BFEF72AF9FEF714FA6D
:102290005449574B4881084681881C331981C088AE
:1022A00058811C33198158815A48642181800A233E
:1022B0007D220383D2000280018183810182828298
:1022C0000021418041814182C181C182C18041831D
:1022D000605EA0214843504E000CB083FFF759FECA
:1022E000F0830021615EA02251431027381AC140BB
:1022F000B18300203083FFF74CFE7083391AE12050
:102300000001C84030830A20285E44494843800CBD
:102310003080FFF73EFE014670800A20285E3F4A6B
:1023200050431222511AC84030800020205E3C49A0
:102330004843800DB080FFF72CFEF080014600235B
:10234000E35E374843431620401AC340B3806868B1
:10235000010C31810846FFF71CFE70816A68381A4B
:10236000C24032810A21695E2E48FDF7C9FE010C88
:102370002D4E08463180FFF70CFE708000900A2138
:10238000695E2848FDF7BCFE0099791AC840308084
:102390000021615E2548FDF7B3FE000CB080FFF719
:1023A000F8FDF08000900021615E2048FDF7A8FE56
:1023B00001460098381AC140B1803F033846696829
:1023C000FDF79EFE80B23081FFF7E3FD70813B4652
:1023D000834018466968FDF793FE308112203083F0
:1023E00026E00000500100200046E24600002047A1
:1023F0000C12002010C9000040420F002F88060078
:10240000F2660100CE9300000A6A0100300200204B
:10241000000024408C020020AC0200205B2300005E
:10242000181700008DF61C00CC020020B172C50206
:10243000FFF7AFFD87407083E12109013846FDF7C2
:102440005FFE30830021615E0A20012541432D0398
:102450002846FDF76BFE80B2B083FFF79AFDF0834C
:102460000021615E0A22514385402846FDF748FE5F
:10247000B08302493220C88607B0F0BD5001002069
:102480007047F0B50B46002200240025002100BF54
:1024900065E00126964034461E6826403546A54232
:1024A0005CD11E79002E0CD1016801269640314383
:1024B00001604168012696400F46B74339464160A6
:1024C0002DE01E79012E0BD1016896400F46B743CF
:1024D00039460160416801269640314341601EE063
:1024E0001E79022E0ED10168012696400F46B74391
:1024F000394601604168012696400F46B743394688
:1025000041600CE01E79032E09D101680126964036
:1025100031430160416801269640314341605E7954
:10252000012E04D1016996403143016109E05E79D1
:10253000002E06D10169012696400F46B743394661
:10254000016181699E68012E02D19640314304E009
:10255000012696400F46B74339468161521C102A26
:1025600097D3F0BD30B50C46230002F0A5FD10094D
:102570000F171E252B333A41474F565D636B727917
:10258000016A394D29408B1803626AE0016A364DB1
:10259000E13D294013015B18036262E0016A334D9B
:1025A000294013025B1803625BE0036A1905090DF9
:1025B00013035B18036254E0416A2B4D29408B18CA
:1025C00043624EE0416A284DE13D294013015B180A
:1025D000436246E0416A254D294013025B1843627D
:1025E0003FE0436A1905090D13035B18436238E0A5
:1025F000816A1D4D29408B18836232E0816A1A4D31
:10260000E13D294013015B1883622AE0816A174D7E
:10261000294013025B18836223E0836A1905090DC0
:1026200013035B1883621CE0C16A0F4D29408B18AD
:10263000C36216E0C16A0C4DE13D294013015B18ED
:10264000C3620EE0C16A094D294013025B18C362E0
:1026500007E0C36A1905090D13035B18C36200E0A4
:1026600000BF00BF30BD0000F0FF0000FFF0000021
:1026700030B504460D4600222946204600F010F8E9
:1026800030BD30B504460D4601222946204600F0F3
:1026900007F830BD00210160017141718160704710
:1026A000002A03D0C3680B43C36002E0C3688B43B6
:1026B000C36070470EB56846FFF7ECFF012168461E
:1026C00001713F200001009069462C48FFF7D9FEB8
:1026D000032204212948FFF745FF0322052127484B
:1026E000FFF740FF032206212448FFF73BFF0322A8
:1026F00007212248FFF736FF032208211F48FFF772
:1027000031FF032209211D48FFF72CFF6846FFF720
:10271000C1FF0021684601710320C0020090694694
:1027200016484030FFF7ADFE6846FFF7B3FF0121C2
:1027300068460171C0200090694610484038FFF794
:10274000A0FE40210D484038FFF79BFF80210B4839
:102750004038FFF796FF6846FFF79CFF0121684667
:10276000017108200090694604484038FFF789FE4F
:10277000082102484038FFF77BFF0EBD4020014092
:102780007047000010B504460121022001F038F91D
:102790002088A17809040843E178090508432179D4
:1027A00009060843617909070843A17949070843E5
:1027B000217B8907084303490860A068C86000209E
:1027C000486010BD001001401FB5684600F014F8C5
:1027D000012149026846018000218170C1700121F8
:1027E000017141718171034802906846FFF7CAFF89
:1027F0001FBD0000007C920007490180002181700C
:102800000121C17001714171002181717D21C900D7
:102810008160002101737047FF03000008B572B6A4
:102820002D482E4908632E480068C91208432C49D8
:102830000860FFF707F902F063FAFEF7A1F800F06D
:10284000EDFA02F08FFAFFF735FFFFF7A3F800F07B
:1028500057FCFEF722FDFFF7B7FF02F087F964206F
:1028600001F08EF902201F4908600021112002F0BA
:102870005DFC0221082002F059FC01210B2002F02E
:1028800055FC0221092002F051FC02210D2002F02A
:102890004DFC00210F2002F049FC0221002002F033
:1028A00045FC0B2002F032FC002002F02FFC0F2030
:1028B00002F02CFC112002F029FC00200123DB0295
:1028C000094A0AA10090012000F03AFE012001F01F
:1028D000F5F862B608BD0000837A00008000004071
:1028E0000004004000500140500500204A53636F2F
:1028F00070655F693269326932000000704700001C
:10290000F8B5214F388A798A401805B2B88AF98A11
:10291000401804B2388B798B401806B232462146F3
:102920002846FFF719FBC0B2012811D002281CD09D
:102930001649281B4843C1137000401B144A001B52
:102940005043C013FEF7CCFC11494018B881F8BDC4
:102950000E49A01B4843C1136800001B0C4A801B92
:102960005043C013FEF7BCFCF0E70849701B484316
:10297000C1136000401B064A801B5043C013FEF782
:10298000AFFC0449E1E70000D4030020E749000060
:10299000ABAA000055550000F8B50024354F364E5F
:1029A00025463649887A01285FD1C87A07285CD243
:1029B000401CC0B2C87202F067FA2E488038418DC0
:1029C00049420186818D49424186C18D49428186B5
:1029D000386B80472B492A4848632A482A4A40389E
:1029E00042632A484863012000F0A8FB3561234A6E
:1029F000106831698142FCD32048807F012813D0C0
:102A00001C48803845858585C585386B80471D4ABB
:102A10001B4850631B491C48403948631B4850639E
:102A200035613069C828FCD302F018FC02F016FCAE
:102A30001048012160384176022181762038FEF766
:102A4000DFF80E48C07A00F003FD002000F076FBAE
:102A500035610A4A506831698142FCD3D07A062830
:102A600003D1D5729572FFF74BFF641CE4B2062CBC
:102A700097D3F8BD1801002000100140D4030020B6
:102A8000ADDE0000401C0140FFFF0000CDAB0000A8
:102A900070B5044661682068401AC11763692269ED
:102AA00080185941616120610822A25E256928468B
:102AB00066693146FDF7F1FB6060606870BD00003B
:102AC0001748408D404200B2164908801448408D96
:102AD00088801548007C002810D11148808D404224
:102AE00000B208810E48808D88810D48C08D40421B
:102AF00000B208820A48C08D888210E00848C08D64
:102B0000404200B2074908810548C08D88810448C9
:102B1000808D404200B208820148808D88827047D3
:102B200098000020001C01408400002010B50446DD
:102B30000121082000F064FFB048B1494863A07843
:102B4000E178890008432179C900084361790902C5
:102B50000843A17909030843A94908622088A849C4
:102B600040390863208A00B2A54920390880608A6C
:102B700000B28880A08A00B20881E08A00B2888111
:102B80002820005D2921095D490008433921095D9C
:102B9000890008433821095DC90008433121095DD6
:102BA000090108433021095D490108434021095DBD
:102BB000890108432189C90108432A21095D0902C5
:102BC00008432B21095D490208433B21095D890225
:102BD00008433A21095DC90208433321095D09030D
:102BE00008433221095D490308434121095D8903F6
:102BF00008436189C9030843814908612C20005DAD
:102C00002D21095D490008433D21095D89000843E4
:102C10003C21095DC90008433521095D09010843CC
:102C20003421095D490108434221095D89010843B6
:102C3000A189C90108432E21095D090208432F21FA
:102C4000095D490208433F21095D890208433E218D
:102C5000095DC90208433721095D0903084336218C
:102C6000095D490308434321095D89030843E1895C
:102C7000C9030843624948616820005D6921095D14
:102C8000490008436A21095D890008436B21095DF9
:102C9000C90008435A49C8604A20005D4B21095DBC
:102CA000490008434C21095D890008434D21095D15
:102CB000C90008434821095D090108434921095D0C
:102CC000490108434E21095DC90108434F21095DAF
:102CD000090208435021095D490208435121095D59
:102CE000890208435221095DC90208435321095D45
:102CF000090308435421095D490308435521095D2F
:102D0000890308435621095DC90308433C494862C9
:102D10004420005D4521095D090108434621095D04
:102D2000490108434721095D890108433449886105
:102D3000208B334940310860608B4860A08B8860ED
:102D4000E08BC860208C0861608C4861A08C886131
:102D5000E08CC8612B482A4948605720005D582103
:102D6000095D490008435921095D890008435A213A
:102D7000095DC90008435B21095D090108435C2125
:102D8000095D490108435D21095D890108435E2110
:102D9000095DC90108435F21095D090208436021FB
:102DA000095D490208436121095D890208436221E6
:102DB000095DC90208436321095D090308436421D1
:102DC000095D490308436521095D890308430C49EE
:102DD000403988636620005D00016721095D490173
:102DE00008430749086007480549403948630020FF
:102DF000486305480249486310BD0000ADDE00008D
:102E0000401C0140FFFF0000FECA000010B5044650
:102E10006C212046FDF76DFA10BD000000B59BB097
:102E20006846FFF7F3FF0021684681700121C170F9
:102E3000017100210181418181810C2141718171E8
:102E400023490180234901822149491E418273217E
:102E5000018341838183C18301844184012108A8C6
:102E6000017200214172012181720021C172012190
:102E700001730021417310A8017041708170C1730A
:102E80000121017400214174012181740021C17468
:102E9000012101758173417100218171C17518A8EB
:102EA000817110A801720121817200210173012139
:102EB00018A8C17110A84172C172002141736846FF
:102EC000FFF734FE04480069044988831BB000BD45
:102ED000B80B000052F40000401C0140D403002055
:102EE000F8B5284D1623EB5E274C1422E380AA5E2A
:102EF0001846114658435143244F228140183863E5
:102F0000786B234900B20882A16B0604761AF6108A
:102F10007118A163E98E88420ADDC90339627862BB
:102F2000B86A80B24343D9134243E180D013208171
:102F30001848194E0068F18A4010484317498969BA
:102F40004018001401F030FEE8611C2206231E2008
:102F50000821AA5EE35E285E615E174604465F4371
:102F60004C433C1B58434A438018C01301B2708B3A
:102F7000E41324B24443221341432A830813688391
:102F8000F8BD000098000020200000200050014003
:102F900030020020D80100200C1200205001002037
:102FA00002480021C16081618160704730020020C9
:102FB00030B51748174B018A1C250A04C168521AFC
:102FC00012125118C1600C14455F1A780146496904
:102FD000954206DD521C1A700F4A12698918416128
:102FE00030BD00251D708269D3009A1A5118C9108E
:102FF00081610A494561896A6143091341800A0474
:103000008168521A5211511881600914818030BDB3
:103010003002002068000020D8010020500100206C
:1030200070B51D481E4C03791C4D1E4A1E4821696F
:10303000042B16D81D4E2368F68A5B1073436E6905
:103040009B196B61AB610E23D35E93621023D35E39
:10305000D36261600021C181818A018201201070E8
:1030600070BD2B69AB6161601378012BF8D102232D
:1030700013702160118D0182918DC18150890304EB
:103080000948403083619089074A0004403AD0677C
:1030900088050749C86070BD8400002050010020E9
:1030A000D801002020000020D80000200C120020B1
:1030B0005402002001464868C200C868904208DAFD
:1030C0000023CB5EC868C018C860C868904200DBA7
:1030D000CA60C868904208DD0223CB5EC868C01A87
:1030E000C860C868904200DACA60C868C0108860CA
:1030F000C868904201D1012070470020FCE7000021
:1031000010B50121042000F061FC0121082000F02D
:103110005DFC0121102000F059FC0121202000F06D
:1031200055FC0448044908630020C90508620249A7
:10313000086310BD837A0000800000400A490B4AF2
:103140005163012806D11146496A40221143074ABA
:10315000516205E00549496A054A1140034A516236
:103160000449024A51637047ADDE0000401C014033
:10317000BFFF0000FECA000010B500F0BDFC10BD8E
:1031800070B5174A1549174B4888108188885081B7
:103190000020182410601C5F154663425360124BD8
:1031A0001446383C5E4248C41C3DE86048C50F4B9D
:1031B00060609E882680DE8866801C892C805C8901
:1031C0006C80C8630A4D08642C684C6418612C61DB
:1031D000886311465439D060086170BD200000201A
:1031E00060120020D800002000007017500100205D
:1031F000D8010020FEB58F4D2869001401F0D4FCE1
:1032000000908D486946098801866946498841864B
:1032100004462969A8692034401A001401F0C4FC4E
:10322000694600900888A0824888E082824900238D
:1032300034318148CB5E02228A5E06250824455F30
:103240001E46045F11466E43614363436A43711A2D
:103250009A18C91309B2D213418117B2878110237A
:10326000C35E026A754C534300920E25744A65573B
:10327000825E002D04DB8A1AA1684A432A4104E0D9
:103280008A1AA1684A4369428A406B48C16BC813D5
:103290004E046A4900B20968760C0C46444308465D
:1032A0007043C0130019654C01900D2020561E1468
:1032B00064689BB20028A44602DB6643064102E034
:1032C00066434442A64064465C43034610331C41B7
:1032D000A319019C0E26A218574CD318A65F009A7A
:1032E0005643584A002DA25E05DBBA1A534FBF68F9
:1032F0007A432A4105E0BA1A504FBF687A436D42BB
:10330000AA403714B5B24D4E00287668B44602DBA9
:103310007743074102E077434642B74066466E4333
:1033200010300641F019266C434FF5132DB2760488
:10333000760C4D437143C91349198918424A081A3A
:10334000102530371221555F0026515EBE5F0222E4
:10335000BA5EB4466E438E4651437118C9130FB21C
:103360007146664655437143491BC913E78109B24B
:103370002182E3639A13206413B2801302B22F4DAB
:10338000501A1C356282DB1B2E4601211C36C902F5
:103390002B614A4230618B4201DD0B4602E09342D1
:1033A00000DA13462B61884201DD084602E09042B4
:1033B00000DA1046306121481C30FEF7C9FAA082BD
:1033C0001E483830FEF7C4FAE0821421615E218382
:1033D0001E4D60832A69002A01DB494200E0404219
:1033E000FDF77EFF7D218901884202DC4942884247
:1033F00000DA08460F49114ACB8916694343F3188E
:1034000013618E895B134643B011C0182062128B82
:10341000E3694243D218E2610A61C98E0122920235
:10342000521A636C92B2534341435818801260643D
:103430002861FEBD50010020200000200C12002059
:10344000140000001600000098000020D8010020A1
:1034500010B51549154B8C7F00229A5E012C0DD0BA
:103460000221595E1B885B185B421CB2030001F00D
:1034700023FE0708090C0F12151808004000401819
:10348000C28110BD0848028210BD0748428210BDAB
:103490000548818210BD0448C18210BD02480483E2
:1034A00010BD0148448310BDD403002098000020C3
:1034B00070B505460E4614460220285E0221715E54
:1034C0004843002805DB0220285E0221715E484344
:1034D00005E00220285E0221715E4843404200213F
:1034E000695E0022B25E5143401860606068A0606F
:1034F00020460830FFF7CCFA20602068C011206019
:1035000070BD000010B50D4A0B49936ACA14012B17
:103510000B460B680DD013430B6059231B064B6001
:103520004860C86895231B064B600B6893430B608B
:1035300010BD9343F0E7000000040040800000400D
:10354000FFB581B004460E46174600BF20480078FC
:10355000002801D101F0BEFC00BF1D480069A04257
:1035600030D9EFF310810846012181F3108800BFA4
:1035700000BF002C18D018216143154A183256504C
:103580001821614389184F6018226243104B183389
:10359000D21804999160002218216143C9180A6168
:1035A00018216143C918CA6018226243084B1833B6
:1035B000D2180A995161C1B281F3108800BF00BFCF
:1035C000002501E00025ED43284605B0F0BD0000D0
:1035D000540D0020F8B504460D46164600BF0E48AF
:1035E0000078002801D101F075FC00BFEFF31080D6
:1035F0000746012080F3108800BF00BF32462946ED
:10360000204600F00BF80090F8B280F3108800BF5D
:1036100000BF0098F8BD0000540D0020F7B582B03F
:103620000746164603980190182078431B49401816
:10363000009000984069002804D0012811D0022889
:1036400026D11EE0009801F07DFC0546B54201D26E
:10365000002405E0344632460199009801F0C0FC90
:1036600018E0009801F06EFC0546B54201D22846EC
:1036700000E03046044622460199009801F0B0FC73
:1036800008E032460199009801F06AFC044601E026
:10369000002400BF00BF204605B0F0BD6C0D002027
:1036A00070470000FCB5418B182349420AB242839F
:1036B000C35E69460B80494902254A439903511864
:1036C0004942CA17520C5118C9130CB269464C80B2
:1036D000191949420AB269468A8001462031A3423B
:1036E0001CDC93420BDC944204DC01264E760E7601
:1036F000164602E04D760D7626469E191EE01619F6
:10370000F70FBE1976109B1B6F463B80A31B7B8077
:10371000921BBA8003224A760D7629E0944218DC87
:10372000934205DC04264E7601260E76164604E00A
:1037300005264E7603260E761E46A619F70FBE19ED
:1037400076109B1B6F463B80A31B7B80921BBA802D
:103750000EE0D618F70FBE1976109B1B6F463B8004
:10376000A31B7B80921BBA8006224A7603220A762C
:10377000AC2300221B58BA5E0124A4039E891219AF
:103780007243D213643E964201DA324602E0002AC6
:1037900000DA002242850222BA5E9E891219724323
:1037A000D213643E964201DA324602E0002A00DA81
:1037B000002282850422BA5E9B8912195A43D213D1
:1037C000643B934201DA1A4602E0002A00DA002242
:1037D000C285012048768D76FCBD0000DA6E0000BF
:1037E000F3B587B00D460026002700200390029015
:1037F000019074480088694608833920405D0300C1
:1038000001F05AFC075305192D42474C530046203E
:10381000415F6A461820105E0C1A6B48844200DD36
:1038200005E06948C043844200DA00E0204606B261
:10383000012002903BE04820415F6A461820105E5C
:103840000C1A6148844200DD05E05F48C0438442B1
:1038500000DA00E0204607B20120019027E04A206C
:10386000415F6A461820105E0C1A5748844200DDFA
:1038700005E05548C043844200DA00E0204600B22B
:1038800003900120019012E00026AE5F012002901B
:103890000DE00227EF5F0120019008E028884042F8
:1038A0006988401A00B2039001E0002400BF00BF05
:1038B00044488088694608833A20405D030001F04F
:1038C000FBFB075105192D40454A51004620415F39
:1038D0006A461820105E0C1A3B48844200DD05E061
:1038E0003948C043844200DA00E0204606B2012095
:1038F000029039E04820415F6A461820105E0C1A99
:103900003148844200DD05E02F48C043844200DA9C
:1039100000E0204607B20120019025E04A20415FE7
:103920006A461820105E0C1A2748844200DD05E024
:103930002548C043844200DA00E0204600B20390EC
:1039400012E00026AE5F012002900DE00227EF5F3B
:103950000120019008E0288840426988401A00B29E
:10396000039001E0002400BF00BF029800280DD1A1
:10397000794203980C1A1448844200DD05E012488D
:10398000C043844200DA00E0204606B201980028D5
:103990000DD1714203980C1A0B48844200DD05E0FA
:1039A0000948C043844200DA00E0204607B2684676
:1039B00006824782062204A90798FCF781FC09B019
:1039C000F0BD000000140140FF7F00000A4A0B4BCD
:1039D0001A63002905D0DA05526B0243DB055A63EE
:1039E00006E001229207526B824301239B075A6330
:1039F0000022024B1A637047837A00008000004067
:103A0000094A0A4B1A63002904D01A46D2690243B4
:103A1000DA6104E0054AD2698243044BDA6100228C
:103A2000024B1A6370470000837A00008000004058
:103A300010B50446012C3BD11E481F490863C80538
:103A4000806B032109028843A1078863642000F08A
:103A5000A3F8A007806B21020843890588636420CE
:103A600000F09AF800BF0120800780690121490316
:103A700008400028F7D14804806B032109028843DD
:103A8000012189078863642000F086F801208007FF
:103A9000806B0321090208430121890788636420A0
:103AA00000F07AF8112001F015FB002002490863AC
:103AB00010BD0000837A00008000004010B504466D
:103AC000012C12D10021112001F06CFB11200028E3
:103AD00009DB00BF00BFC206D20E01219140054A9A
:103AE000116000BF00BF00BF02E0112001F0FEFA2C
:103AF00010BD000000E100E0112001F0F7FA1120F4
:103B000001F0E8FA1848194948630846406A40211C
:103B10008843164948620846006A0C2188431349C5
:103B2000086200204863124812490863FF20C862F7
:103B300008460068891588430E490860C805406B2F
:103B4000C9138843C903486300200A49C86208634F
:103B500000BFBFF34F8F08480849C860BFF34F8FBD
:103B600000BF00BF00BFFDE7ADDE0000401C01400C
:103B7000837A0000800000400400FA0500ED00E0B8
:103B800008B50021009103E000BF0099491C009195
:103B900000998142F8D308BD08B50021009103E0E7
:103BA00000BF0099491C009100998142F8D308BDDB
:103BB0000269D10182698A4208DA1423C35E8269EC
:103BC000D218826182698A4200DB816182698A42FD
:103BD00008DD1623C35E8269D21A826182698A4235
:103BE00000DC81617047000010B5002022490860A8
:103BF00022480221415E962909DA4088401C00B221
:103C00001E4948801E4800681E49486017E01B494D
:103C10000220085EFF212D3188420ADA17484088C9
:103C2000401C00B215494880154840681549486055
:103C300005E0042014490871002010494880134809
:103C400001F0CEF800B20F490880104801F0C8F822
:103C500000B20C4948800846FFF72CFA0C4800884F
:103C60000849896848430A498978084101B20948E6
:103C70000182018A818210BDD8010020F403002056
:103C8000880100207002002084000020CDCCCC3DB3
:103C9000CC020020D800002010B56B48C089401C21
:103CA00000B26949C881FF21F531884278DB0020E4
:103CB0006549C88165488078002802D0012870D104
:103CC0005DE06348008C6349898F884253DD604919
:103CD0003620085E5F49096C4942884203DA1220A7
:103CE0005A4908714AE05A493620085E5949496CD8
:103CF000884203DA1220554908713FE028205649CE
:103D000088810A20C88165204F49C8800020C8806A
:103D1000524801F065F80446FCF7B6FF00B24D4981
:103D200008834E4801F05CF80446FCF7ADFF00B292
:103D3000484948833F20000601F052F80446FCF74A
:103D4000A3FF01B246484182418AC18140493620E1
:103D5000085EFCF7A5FF43494860084640680860D4
:103D600002213C48203081700120FFF7E7F907204D
:103D70003649087102E012203449087161E0344884
:103D8000008C3449898F884256DD31493620085EDF
:103D90003049096C884205DD12202C4908714EE03B
:103DA00050E04DE02A493620085E2A49496C4942D4
:103DB000884203DD12202549087140E02820264969
:103DC00088810A20C88165201F49C8800020C880DA
:103DD000224801F005F80446FCF756FF00B21D49E1
:103DE00008831E4800F0FCFF0446FCF74DFF00B2BC
:103DF000184948833F20000600F0F2FF0446FCF714
:103E000043FF404201B216484182418AC1811049B4
:103E10003620085EFCF744FF1249486008464068B7
:103E2000086002210B48203081700120FFF786F9DD
:103E300007200649087102E012200449087100E0D9
:103E400000BF00BF10BD0000F4030020840000206C
:103E5000040500208801002050010020CDCC4C3DFD
:103E6000D8000020D801002010B513491020085EAA
:103E70007D21C900884209DA0120FFF75FF90E4869
:103E8000008A401C00B20C49088213E000200A4955
:103E90000882FFF753F9012008490871002000F05B
:103EA00089FF0749098B48430549897EC8400004BA
:103EB0000449486110BD0000F40300208400002084
:103EC000CC0200205001002010B55E48807B002805
:103ED00022D101205B498873E12080005A4948853E
:103EE000014659488185C185408D404200B25649FE
:103EF00008860846808D404201B253484186C08DF5
:103F0000404201B25048818601468031086B8047AB
:103F100000204E49088078E04C480088002815D1E0
:103F20004B484C4948634C48808B4C4908434949AD
:103F300008614948808B0C210843464948610020AC
:103F400048630120FFF7FAF800BF21E03F480088EE
:103F500064280CD13E483F4948633F48808B404924
:103F600008433C4908610020486300BF10E037481F
:103F70000021415EC8290BD135483649486336488F
:103F8000808B08210843334948610020486300BF03
:103F90002E490020085EFF212D31884206DA2B4889
:103FA0000088401C00B2294908802EE00020FFF75D
:103FB000C5F872B600202449488500212248818531
:103FC000C185408D404200B21F4908860846808D59
:103FD000404201B21C484186C08D404201B21A489D
:103FE000818601468031086B8047FF20194940399E
:103FF0004863FEF713FF1B48806B042108431949EF
:10400000886362B601200F49C8730E48C07B01283F
:1040100017D100200B4988730C4908800949C873DF
:1040200000F00EF9012010490871002000F0C2FED6
:104030000E49098B48430D49897EC84000040C494C
:10404000486110BD8801002098000020F403002082
:10405000ADDE0000401C0140D4030020080C00002D
:104060000C0800008014014084000020CC020020D5
:104070005001002070B50024002150480182C18108
:104080004F48415E002903DA4E484068444201E04F
:104090004C4844684C488088401C00B24A4988809B
:1040A000FF21F531884271DB00204749888047486D
:1040B0008078002802D001287CD13CE04448406947
:1040C0004042A04206DD092040490871C8203E490F
:1040D00008812FE03E480069A04206DD09203B49E7
:1040E0000871C8203849088124E0384880780028C1
:1040F0000AD13F20000600F073FE0546FCF7C4FD20
:1041000001B22E48C1810EE03048807801280AD1E2
:104110003F20000600F064FE0546FCF7B5FD404276
:1041200001B22648C1810720284908710221284888
:10413000203081703FE0264800694042A04227DDE0
:104140002248807800280AD13F20000600F048FE6F
:104150000546FCF799FD01B21848C1810EE01B48E5
:10416000807801280AD13F20000600F039FE05467C
:10417000FCF78AFD404201B21048C1810720134973
:104180000871022112482030817012E014E011E021
:104190000F484069A04206DD09200C490871C8207B
:1041A0000949088105E0092008490871C820064925
:1041B000088100E000BF00BF70BD0000D8000020F3
:1041C0002800002030020020F4030020840000209A
:1041D0008801002010B500200249C870FEF7AEFF2C
:1041E00010BD00008400002010B51348807800281E
:1041F0000AD13F20000600F0F3FD0446FCF744FD21
:1042000001B20E4841820EE00B48807801280AD1A5
:104210003F20000600F0E4FD0446FCF735FD404277
:1042200001B206484182002104488182FDF726FA46
:10423000FDF768FA10BD000084000020D8000020BF
:104240007CB50020FEF77AFF734800F0DFFD73496C
:104250000861734800F0DAFD704948610020714937
:104260008877782008840C204884002048604880A3
:1042700008808860886148610882C860FEF790FE07
:1042800069498888FCF7B6F905460022674BFCF7B8
:10429000BFF801910090FCF70FFA604988876448E5
:1042A00000F0B4FD5D490864614800F0AFFD5B4972
:1042B000486400205F498870012008740020574935
:1042C0008873C87300F076FD544988815A4800F01D
:1042D00087FD0546FCF7D8FC00B2504908835648D4
:1042E00000F07EFD0546FCF7CFFC00B24B49488349
:1042F000524853490880488088808031086B804745
:1043000000214F4840300182C1814038C1810020E6
:104310004B4988810882002149484182403081828E
:104320004182002046490880488088800886002114
:104330004348418681868C30C16041618C38C167B9
:104340007030416100203E49088300213C48418390
:10435000C18200203A498882888400213848C1847B
:104360000185384800F03CFD2C490860364800F0D3
:1043700037FD2A494860002034498882C882886114
:104380004860C8608860244800F040FD2349886088
:104390000021224820308170002020490884FEF747
:1043A000EFFE1D4800F032FD0546FCF779FC284978
:1043B00088860A2027494881322008810020C86069
:1043C00008601F4840301821415E4842214948603A
:1043D00000211B488030818600201F4908804880CA
:1043E0008880C880088148818881FDF7ABFC11482E
:1043F000008804B2FCF7C4FA00BF0E480088001B16
:1044000003D40C480088001B02E00A480088201AE8
:104410000228F2DB7CBD00000000C84188010020BA
:1044200000004842300200208C0200200000E03FE3
:104430000000F04184000020CDCC4C3DDC050000A4
:10444000980000206666A63F66662640700200203F
:104450005001002060120020F403002010B5324803
:10446000807800285FD131488078002805D12E4817
:10447000203880682E49086105E02B482038806884
:1044800040422B4908612B4800F0C0FC00B228498B
:104490008882284800F0BAFC00B22549C882084644
:1044A000FFF786FB22488069C0112349C860C868AD
:1044B000FCF7F6FB204908600846C0681C490969FA
:1044C000884230D11D4800691C494969401A164983
:1044D000203948620846406A002802DB0846406AE4
:1044E00003E011482038406A404200140E49203948
:1044F00048620846406A7D21090188420EDD0A486B
:104500002038406A0E49884208DA07482038008D72
:10451000401C00B204492039088503E0002002490C
:104520002039088500BF10BDA801002084000020AC
:10453000700200200000A040D8010020500100209F
:104540005046000010B501201C4988720020C87236
:1045500002208877E120800108604B20000248603B
:104560001748088100201749C8630846806B04215A
:1045700008431449886372B6FEF70EFA62B6FCF778
:10458000FFF9FEF74BFC10488078002808D10F484F
:1045900080890A498989401800040D4948610BE067
:1045A00009488078012807D104488089074989890A
:1045B000401A00040649486110BD0000D4030020E1
:1045C000B80B000080140140840000208801002006
:1045D0005001002010B545488078012857D1444843
:1045E0000C21415E1E2919DA8089401C00B2404925
:1045F0008881404800F0F4FB0446FCF745FB00B21C
:104600003A49203908833B4800F0EAFB0446FCF7AE
:104610003BFB00B23549203948835EE00020344935
:104620008881022131488170334800F0D9FB04466B
:10463000FCF72AFB00B22D49203908832E4800F0F0
:10464000CFFB0446FCF720FB00B228492039488301
:104650002A48807800280AD13F20000600F0C0FBDD
:104660000446FCF711FB01B22548418235E023489E
:104670008078012831D13F20000600F0B1FB0446CC
:10468000FCF702FB404201B21D48418225E0174879
:104690008078022821D11948807800280AD1194849
:1046A000006800F09DFB0446FCF7EEFA01B21448E6
:1046B00041820EE01148807801280AD11148006833
:1046C00000F08EFB0446FCF7DFFA404201B20C48D2
:1046D00041820D4840680C490860002108488182E9
:1046E000FCF7CCFFFDF70EF810BD0000A80100207C
:1046F000F4030020CDCCCC3DCDCC4C3D840000203B
:10470000D80000200C000020D801002010B51D4862
:10471000807F002832D01C480A21415E0A2908DA2D
:104720004089401C00B2184948810020154988770B
:1047300027E015480821415E002905DD0089401E5B
:1047400000B2114908811CE000201049486110495D
:104750000860C8600B4988770B49488101200D49E2
:104760000871002000F026FB0B49098B48430A49D9
:10477000897EC84000040549486102E000200249E2
:10478000488110BD30020020F403002050010020B9
:10479000D801002084000020CC02002070470000D7
:1047A00010B53B480079030000F086FC130B1E1582
:1047B0002D301B273360464F576036606039184CE8
:1047C00060003348C078002804D0FFF739FD02208C
:1047D0002F4908714BE0FFF777FB48E0FFF75CFAE1
:1047E00045E0FFF747FC42E0FFF72AFD0120FEF716
:1047F000A5FC03202649087139E0FFF7A3FE01203C
:104800002349087133E0FFF7EFF930E0FFF726FEA8
:104810002DE0FFF7DFFE2AE0FFF7E6FC27E01D486A
:10482000007D032807D10020FEF788FCC820184926
:10483000C8800A2008711AE0FFF768FFC8201449F1
:10484000C88014E0FFF710FB11E01148C088002871
:1048500002D000200E49087109E0FFF7BBFC0E48AA
:104860000088002801D10A49087100E000BF00BF9C
:104870000748C07800280AD107480088002806D1D8
:10488000FEF75CFCC8200249C8800A20087110BDF0
:10489000840000202C0300201600002010B5FCF737
:1048A000FFFD10BD002932D0324A904208D1314A72
:1048B000C032126B10231A432E4BC0331A6358E0D8
:1048C0002C4A2032904208D12A4AC032126B20234F
:1048D0001A43284BC0331A634BE0264A40329042B9
:1048E00008D1244AC032126B40231A43214BC033F3
:1048F0001A633EE01F4A603290423AD11D4AC032EC
:10490000126B80231A431B4BC0331A6331E0194AE0
:10491000904208D1174AC032126B10239A43154BAC
:10492000C0331A6325E0134A2032904208D1114A5D
:10493000C032126B20239A430E4BC0331A6318E027
:104940000C4A4032904208D10A4AC032126B4023CE
:104950009A43084BC0331A630BE0064A6032904218
:1049600007D1044AC032126B80239A43014BC033F3
:104970001A63704700180140FEB506460C46012137
:104980000420FFF73DF821783046FFF78BFF616880
:104990008900A0680843E168C9000843616909010A
:1049A0000843216989010843A169C9010843216BB2
:1049B000090208433060E0697060206AF060606A54
:1049C00030613D48476B208D0007000F0190A08D9E
:1049D0000007000F00903848C038864216D10720E3
:1049E00002903946029881430F46606B0743324874
:1049F0004038056AFF2000020540019805430098F1
:104A0000000105432C484038056252E02A48A0388E
:104A1000864216D1382002903946029881430F46CB
:104A2000606BC000074324484038056AEDB2019826
:104A3000000205430098000305431F484038056203
:104A400037E01D488038864218D1FF20C1300290DF
:104A50003946029881430F46606B80010743164830
:104A60004038456AFF200002054001980543009840
:104A7000000105431048403845621AE00E4860388E
:104A8000864216D10720400202903946029881439F
:104A90000F46606B4002074307484038456AEDB255
:104AA000019800020543009800030543024840387E
:104AB000456201484763FEBDC01801400021816086
:104AC0004160C1604161016181617D21C900C161B5
:104AD00049100162416200218162C1620163416348
:104AE0000170704710B51D48C07802281DDB0020FA
:104AF0001A49C87000BF1A48C088002804D0184856
:104B0000C088401E1649C88000BFFDF7EDF8154863
:104B10000088002802D00B2011490871FFF740FEE1
:104B200011492220085EFCF793FF0C488088142866
:104B300002DB0020094988800848C0887D21C9001F
:104B4000884202DB00200549C8800448807800289C
:104B500002D000200149887010BD000078000020BC
:104B600084000020160000209800002010B50B489B
:104B70000B490863C805406B49140843490448635E
:104B80007320C000FEF7BEFC06490880E7208000C5
:104B9000FEF7B8FC0349488010BD0000837A00008E
:104BA000800000401C00002008B50146094800684C
:104BB00004221043074A106010464160006902B2A7
:104BC000684642800348406902B268460280009805
:104BD00008BD00000050014070477047F0B587B035
:104BE00005460C463948854204D101211020FEF7C4
:104BF00007FF06E03648854203D101212020FEF759
:104C0000FFFE002720680246002301903148194624
:104C1000FBF7D0FA03910290781C02460023019022
:104C20000298FBF7C7FA064612E07F1C206802468E
:104C30000023019027481946FBF7BCFA0391029024
:104C4000781C0246002301900298FBF7B3FA06464F
:104C500021488642E9D821488761761EF0B2A860D3
:104C6000FF2000023040000A6860E079012803D18B
:104C700004900020059009E0E079022803D101208A
:104C80000490059002E0002004900590207961795D
:104C900049000843A179890008430599C9000843E0
:104CA000049909010843217A49010843617A89017D
:104CB00008432860A07B4000617B0843286260892C
:104CC0002861207BA86107B0F0BD000000280140EA
:104CD000002C014000D8B805FFFF00008000004014
:104CE0004B21C90101600021017141718171C171C4
:104CF00001724172418101734173817370470000F9
:104D00001FB56846FFF7ECFF4B20400200900021E2
:104D10006846017141718171C17101736946024830
:104D2000FFF75CFF1FBD0000002801400948806BB1
:104D300001210843074988630748C078401C064999
:104D4000C87008468088401C88800846C088401C7F
:104D5000C8807047C0180140780000207047704735
:104D60007047000000B58FB001A8FFF7A7FE002034
:104D70000290039004900590069007900B480890CD
:104D800040100990FF20F5300A9000200B900C9005
:104D90000D9001200E9001A90548FFF7EDFD0121BE
:104DA0000348FFF77FFD0FB000BD000080BB00008F
:104DB00000180140F8B504460849088BFBF713FCBE
:104DC00007462146FBF7A9FA0646FBF737FC0349DD
:104DD000897E084185B22846F8BD00008C0200207B
:104DE000F8B5044608490888FBF7FDFB074621464D
:104DF000FBF793FA0646FBF721FC03498978084143
:104E000005462846F8BD00008C020020F8B504468F
:104E100008490889FBF7E7FB07462146FBF77DFABF
:104E20000646FBF70BFC0349897A084105462846EC
:104E3000F8BD00008C020020F1B586B00698FBF7A3
:104E400059FC04460B4A0C4BFBF7E2FA06460022DB
:104E50000A4BFBF7DDFA0A4A0A4B01910090FBF777
:104E60003FFB03910290FBF703FC0490049807B00A
:104E7000F0BD0000FA189C8FC1F9983FC0FFDF40D9
:104E8000CDCCCCCCCCCC0C4010B5104B0821595E0D
:104E900000240F4A030000F00FF9071705080B0D57
:104EA0000F131700518594850CE05485918505E01A
:104EB000548506E0518500E054859485D18510BD68
:104EC00051859185D48510BD5485ECE7D40300202D
:104ED0009800002010B5124C03202061606111A0E1
:104EE000A0611349E1610121890221620021A162CF
:104EF0006162E1620BA020660E4961661021A16625
:104F000000212167E16661670BA1E01DFBF7FCF959
:104F10000AA12046FBF7F8F92020A07110BD00007F
:104F2000540D00205465726D696E616C00000000C4
:104F3000FC0D0020FC1100205254540053454747FB
:104F40004552000010B501460A69CB689A4204D860
:104F50008C68641EE41AA01801E0D41A601E10BD0B
:104F6000F7B582B00446174600200190E56800BFFF
:104F7000206900900098A84203D90098401B461E63
:104F800004E0A1680098281A401C0E1A002E00D1D7
:104F90000126A068401BB04201D9304601E0A0685C
:104FA000401B0646BE4201D2304600E03846064667
:104FB0006168481932460399FBF782F90198801914
:104FC0000190039880190390BF1BAD19A068A842F7
:104FD00000D10025E560002FCAD1019805B0F0BDD1
:104FE000F7B582B004461546E668A068871BAF4255
:104FF00008D9616888192A460399FBF761F9701985
:10500000E06010E0019761688819019A0399FBF745
:1050100057F9E81B0190039AD1196068019AFBF7D0
:105020004FF90198E06005B0F0BD2021020C01D0DD
:1050300010211046020A01D010460839020901D099
:105040001046091F820801D01046891E420801D06F
:10505000881E7047081A7047F8B504148BB22646AC
:1050600082B25E430D14104637145843360480193B
:105070000021794116466E43371436048019794170
:1050800026466E438919F8BDF8B5040C8BB2264646
:1050900082B25E430D0C1046370C5843360480191B
:1050A0000021794116466E43370C36048019794148
:1050B00026466E438919F8BD30B47446641E2578BF
:1050C000641CAB4200D21D46635D5B00E31830BC3C
:1050D00018470000002805DBC206D20E01219140CE
:1050E000014A11607047000080E200E0002809DBFF
:1050F000C206D20E01219140034A1160BFF34F8FC7
:10510000BFF36F8F7047000080E100E0002809DBEB
:1051100000BF00BFC206D20E01219140024A1160B9
:1051200000BF00BF7047000000E100E010B500289C
:1051300019DB1A4A03231B02D21883089B00D2589A
:105140008307DC0EFF23A3409A438B071B0E8407C3
:10515000E40EA3401A43114B032424021B198408B4
:10516000A4001A5118E00E4A03071B0F083B9B08C6
:105170009B00D2588307DC0EFF23A3409A438B0782
:105180001B0E8407E40EA3401A43054B0407240FAB
:10519000083CA408A4001A5110BD000000E100E082
:1051A0001CED00E010B5002819DB1A4A03231B028E
:1051B000D21883089B00D2588307DC0EFF23A3403C
:1051C0009A438B071B0E8407E40EA3401A43114B2E
:1051D000032424021B198408A4001A5118E00E4A63
:1051E00003071B0F083B9B089B00D2588307DC0E6C
:1051F000FF23A3409A438B071B0E8407E40EA340B2
:105200001A43054B0407240F083CA408A4001A51B4
:1052100010BD000000E100E01CED00E002E008C865
:10522000121F08C1002AFAD170477047002001E020
:1052300001C1121F002AFBD1704702681314C91A5A
:10524000838859435118016008147047FDF7E6FA46
:1052500000F01AF800BFFFF745FCFCE70848816B37
:10526000042211438163064A064940321160416BB2
:10527000C907FCD0416B0322114341637047000012
:1052800080140140A55A000010B5FCF75BFDFCF747
:10529000F5FDFCF7C3FAFCF78BFE00210348FBF792
:1052A00095FD03480349886010BD000004050020F7
:1052B000B8520000780000205665725F342E3235F7
:1052C0000000000000000000000000000000B80B1B
:1052D0006B01000000000000242C0A0002004600C0
:1052E000DC050000320000004B000000AF020000AF
:1052F00000000000000000000000000000000000AE
:10530000F00000000000B004242C0A00803E0000E1
:10531000666666400AD7A33BDBF97E400CCEC73CED
:105320000CCEC73C0000290051007A00A300CC003D
:10533000F4001D0146016F019701C001E90111024E
:105340003A0262028B02B402DC0205032D0356030B
:105350007E03A703CF03F7032004480470049904D5
:10536000C104E9041105390561058905B105D905AF
:105370000106290651067806A006C806EF0617079B
:105380003E0766078D07B507DC0703082A085108A2
:1053900078089F08C608ED0814093B0961098809C7
:1053A000AE09D509FB09220A480A6E0A940ABA0A0C
:1053B000E00A060B2C0B510B770B9D0BC20BE70B76
:1053C0000D0C320C570C7C0CA10CC60CEB0C100D08
:1053D000340D590D7D0DA20DC60DEA0D0F0E330EC5
:1053E000560E7A0E9E0EC20EE50E090F2C0F500FB0
:1053F000730F960FB90FDC0FFF0F211044106710C9
:105400008910AB10CE10F010121134115611771113
:105410009911BB11DC11FD111F1240126112821291
:10542000A312C312E4120513251345136613861342
:10543000A613C613E6130514251444146414831428
:10544000A214C114E014FF141E153D155B157A1546
:105450009815B715D515F31511162F164C166A1693
:105460008816A516C216E016FD161A173717541718
:1054700070178D17AA17C617E217FE171B183718D3
:1054800053186E188A18A618C118DD18F8181319C1
:105490002E19491964197F199A19B419CF19E919E4
:1054A000041A1E1A381A521A6C1A861A9F1AB91A36
:1054B000D31AEC1A051B1F1B381B511B6A1B831BBD
:1054C0009C1BB41BCD1BE51BFE1B161C2E1C461C77
:1054D0005E1C761C8E1CA61CBE1CD51CED1C041D5F
:1054E0001B1D331D4A1D611D781D8E1DA51DBC1D74
:1054F000D31DE91DFF1D161E2C1E421E581E6E1EBA
:10550000841E9A1EB01EC51EDB1EF01E061F1B1F2A
:10551000301F451F5A1F6F1F841F991FAE1FC31FC7
:10552000D71FEC1F0020142029203D20512065208A
:1055300079208D20A020B420C820DB20EF2002217C
:105540001621292164550000000000207800000089
:105550001C520000DC5500007800002000150000FF
:105560002C520000000000000000000000000000BD
:10557000CDCC4C3F00000000000000000000000007
:10558000000000000000F4010A000000000000001C
:10559000000000000000000000000000000000000B
:1055A00000000000000000000000000000000000FB
:1055B00000000000000000000000000000000000EB
:1055C00000000000000000000000000000000000DB
:0C55D000000000000000000000000000CF
:04000005000000C136
:00000001FF
