:020000040000FA
:1000000008030020D9000000E7000000E90000001C
:1000100000000000000000000000000000000000E0
:10002000000000000000000000000000EB000000E5
:100030000000000000000000ED0000004506000088
:100040009D080000090900000B0900000D090000CF
:10005000790100007B010000790400007D010000AF
:10006000970800000D040000BD04000025010000F9
:10007000F1000000A9040000990800003901000007
:10008000F1000000B5040000F1000000F1000000E4
:10009000F10000000000000000000000000000006F
:1000A0000000000000000000000000000000000050
:1000B0000000000000000000000000000000000040
:1000C0000448854600F01CF800480047E10A00009B
:1000D000C046C04608030020064880F3088806484A
:1000E000804706480047FEE7FEE7FEE7FEE7FEE73B
:1000F000FEE700000803002047060000C1000000E2
:10010000064C0125064E05E0E36807CC2B430C3C6A
:1001100098471034B442F7D3FFF7D6FF240B000002
:10012000440B00000348406B032108430149486326
:1001300070470000801401407047000010B50B4864
:100140000B490863C805406BC9130843C9034863DA
:10015000012000F0CDF9642000F05CFA0348044966
:100160000863044808600020086310BD837A00001B
:1001700080000040FF010000704770477047F0B5F5
:100180000B46002200240025002100BF65E0012667
:10019000964034461E6826403546A5425CD11E79FD
:1001A000002E0CD101680126964031430160416860
:1001B000012696400F46B743394641602DE01E792F
:1001C000012E0BD1016896400F46B74339460160B6
:1001D000416801269640314341601EE01E79022E9F
:1001E0000ED10168012696400F46B743394601609B
:1001F0004168012696400F46B743394641600CE0FE
:100200001E79032E09D10168012696403143016011
:10021000416801269640314341605E79012E04D148
:10022000016996403143016109E05E79002E06D1F3
:100230000169012696400F46B7433946016181693D
:100240009E68012E02D19640314304E0012696407B
:100250000F46B74339468161521C102A97D3F0BD2F
:1002600030B50C46230000F079FB10090F171E254E
:100270002B333A41474F565D636B7279016A394DB2
:1002800029408B1803626AE0016A364DE13D29403E
:1002900013015B18036262E0016A334D29401302C7
:1002A0005B1803625BE0036A1905090D13035B1811
:1002B000036254E0416A2B4D29408B1843624EE0A3
:1002C000416A284DE13D294013015B18436246E035
:1002D000416A254D294013025B1843623FE0436A9F
:1002E0001905090D13035B18436238E0816A1D4D3F
:1002F00029408B18836232E0816A1A4DE13D294022
:1003000013015B1883622AE0816A174D29401302AA
:100310005B18836223E0836A1905090D13035B18D8
:1003200083621CE0C16A0F4D29408B18C36216E03E
:10033000C16A0C4DE13D294013015B18C3620EE018
:10034000C16A094D294013025B18C36207E0C36A02
:100350001905090D13035B18C36200E000BF00BF5D
:1003600030BD0000F0FF0000FFF00000024600205A
:10037000D3680B40002B01D0012000E00020704723
:1003800030B504460D4600222946204600F010F8FC
:1003900030BD30B504460D4601222946204600F006
:1003A00007F830BD00210160017141718160704723
:1003B000002A03D0C3680B43C36002E0C3688B43C9
:1003C000C36070470EB56846FFF7ECFF0121684631
:1003D0000171C820009000216846417169460A48B1
:1003E000FFF7CDFE6846FFF7DDFF0121684601718A
:1003F000C803009069460448FFF7C1FE07220F2199
:100400000148FFF72DFF0EBD00200140704700009E
:1004100010B572B614481549086315480068C9122A
:10042000084313490860FFF7CDFF00F071FA64201C
:1004300000F0F0F80021084600F0CAFA0020002879
:1004400009DB00BF00BFC206D20E01219140094A5C
:10045000116000BF00BF00BF0020044908630120F5
:1004600000F084F862B610BD837A0000800000407E
:100470000004004000E100E0704770B504460D46FE
:1004800029462046FFF772FF0646002E05D0294672
:100490002046FFF775FF002070BD29462046FFF774
:1004A00078FF0120F8E7000003200149C863704786
:1004B000001C014010B500F069F810BD7047000045
:1004C000094A0A4B1A63002904D01A46D26902432A
:1004D000DA6104E0054AD2698243044BDA61002202
:1004E000024B1A6370470000837A000080000040CE
:1004F00010B50446012C33D11A481B490863C805BE
:10050000806B032109028843A1078863642000F0FF
:100510008DF8A007806B210208438905886308468F
:10052000806BA0438863642000F080F8A007806B94
:10053000032109028843A1078863642000F076F84C
:10054000A007806B032109020843A1078863642088
:1005500000F06CF8112000F00FFA00200249086347
:1005600010BD0000837A00008000004010B50446F2
:10057000012C07D10021112000F066FA112000F0B3
:1005800017FA02E0112000F003FA10BD112000F06C
:10059000FFF9112000F0F0F918481949486308469E
:1005A000406A40218843164948620846006A0C2187
:1005B00088431349086200204863124812490863BF
:1005C000FF20C86208460068891588430E49086004
:1005D000C805406BC9138843C903486300200A4912
:1005E000C862086300BFBFF34F8F08480849C8605E
:1005F000BFF34F8F00BF00BF00BFFDE7ADDE0000BF
:10060000401C0140837A0000800000400400FA058D
:1006100000ED00E008B50021009103E000BF009963
:10062000491C009100998142F8D308BD08B500210A
:10063000009103E000BF0099491C0091009981429C
:10064000F8D308BD704710B5FFF778FD10BD000066
:10065000002932D0324A904208D1314AC032126B5E
:1006600010231A432E4BC0331A6358E02C4A203211
:10067000904208D12A4AC032126B20231A43284BD9
:10068000C0331A634BE0264A4032904208D1244AD4
:10069000C032126B40231A43214BC0331A633EE031
:1006A0001F4A603290423AD11D4AC032126B8023F9
:1006B0001A431B4BC0331A6331E0194A904208D1E8
:1006C000174AC032126B10239A43154BC0331A637A
:1006D00025E0134A2032904208D1114AC032126BF1
:1006E00020239A430E4BC0331A6318E00C4A403261
:1006F000904208D10A4AC032126B40239A43084BF9
:10070000C0331A630BE0064A6032904207D1044AB4
:10071000C032126B80239A43014BC0331A63704777
:1007200000180140FEB506460C4601210420FFF7E3
:10073000C7FE21783046FFF78BFF61688900A0680B
:100740000843E168C9000843616909010843216958
:1007500089010843A169C9010843216B09020843C3
:100760003060E0697060206AF060606A30613D4826
:10077000476B208D0007000F0190A08D0007000F30
:1007800000903848C038864216D10720029039467A
:10079000029881430F46606B074332484038056A30
:1007A000FF20000205400198054300980001054321
:1007B0002C484038056252E02A48A038864216D1BB
:1007C000382002903946029881430F46606BC00082
:1007D000074324484038056AEDB2019800020543FA
:1007E0000098000305431F484038056237E01D4864
:1007F0008038864218D1FF20C130029039460298D5
:1008000081430F46606B8001074316484038456AB4
:10081000FF200002054001980543009800010543B0
:100820001048403845621AE00E486038864216D1BA
:100830000720400202903946029881430F46606BC0
:100840004002074307484038456AEDB2019800026C
:1008500005430098000305430248403845620148BB
:100860004763FEBDC0180140002181604160C16046
:100870004161016181617D21C900C161491001624D
:10088000416200218162C16201634163017070476E
:1008900001468868704770477047000010B51748D8
:1008A000806BC007C00F002802D001201349886365
:1008B0001248806B02210840002814D002200F4902
:1008C00088630F480068401C0D49086008460068AE
:1008D000FF21F531884206D10020094908608021B6
:1008E0000848FFF7CAFD0548806B0421084000282E
:1008F00002D004200149886310BD0000C0180140E7
:100900000000002000200140704770477047000041
:1009100000B58FB001A8FFF7A7FF00200290039059
:1009200004900590069007900A480890401009909E
:100930000A9000200B900C9001200D9007200E9043
:1009400001A90548FFF7EEFE01210348FFF780FEED
:100950000FB000BD80BB00000018014030B47446E9
:10096000641E2578641CAB4204D3635D5B00E3180E
:1009700030BC18471D46F8E7002805DBC206D20E3A
:1009800001219140014A11607047000080E200E0BF
:10099000002809DBC206D20E01219140034A1160F2
:1009A000BFF34F8FBFF36F8F7047000080E100E00F
:1009B000002809DB00BF00BFC206D20E0121914012
:1009C000024A116000BF00BF7047000000E100E074
:1009D00010B5002819DB1A4A03231B02D21883081A
:1009E0009B00D2588307DC0EFF23A3409A438B075A
:1009F0001B0E8407E40EA3401A43114B0324240268
:100A00001B198408A4001A5118E00E4A03071B0F93
:100A1000083B9B089B00D2588307DC0EFF23A340B2
:100A20009A438B071B0E8407E40EA3401A43054B21
:100A30000407240F083CA408A4001A5110BD0000AC
:100A400000E100E01CED00E010B5002819DB1A4AB7
:100A500003231B02D21883089B00D2588307DC0EA5
:100A6000FF23A3409A438B071B0E8407E40EA34089
:100A70001A43114B032424021B198408A4001A51A1
:100A800018E00E4A03071B0F083B9B089B00D25837
:100A90008307DC0EFF23A3409A438B071B0E8407BA
:100AA000E40EA3401A43054B0407240F083CA40896
:100AB000A4001A5110BD000000E100E01CED00E0B0
:100AC00002E008C8121F08C1002AFAD17047704717
:100AD000002001E001C1121F002AFBD17047000075
:100AE0000024FFF795FC16E00B48FFF7D1FE044603
:100AF000002C06D00948844203D240210848FFF761
:100B000048FC0648844206D94000844203D2402172
:100B10000348FFF735FCE7E700180140C05D00001F
:100B200000200140440B00000000002004000000F1
:100B3000C00A0000480B000004000020040300006D
:080B4000D00A000000000000D3
:04000005000000C136
:00000001FF
